{
	"contracts/CrossChainAssetsManagement.sol": {
		"CrossChainAssetManagement": {
			"abi": [
				{
					"inputs": [],
					"stateMutability": "nonpayable",
					"type": "constructor"
				},
				{
					"anonymous": false,
					"inputs": [
						{
							"indexed": true,
							"internalType": "address",
							"name": "from",
							"type": "address"
						},
						{
							"indexed": true,
							"internalType": "address",
							"name": "to",
							"type": "address"
						},
						{
							"indexed": true,
							"internalType": "address",
							"name": "token",
							"type": "address"
						},
						{
							"indexed": false,
							"internalType": "uint256",
							"name": "amount",
							"type": "uint256"
						}
					],
					"name": "AssetTransferred",
					"type": "event"
				},
				{
					"inputs": [],
					"name": "owner",
					"outputs": [
						{
							"internalType": "address",
							"name": "",
							"type": "address"
						}
					],
					"stateMutability": "view",
					"type": "function"
				},
				{
					"inputs": [
						{
							"internalType": "address",
							"name": "user",
							"type": "address"
						},
						{
							"internalType": "address",
							"name": "chain",
							"type": "address"
						}
					],
					"name": "setSupportedChain",
					"outputs": [],
					"stateMutability": "nonpayable",
					"type": "function"
				},
				{
					"inputs": [
						{
							"internalType": "address",
							"name": "from",
							"type": "address"
						},
						{
							"internalType": "address",
							"name": "to",
							"type": "address"
						},
						{
							"internalType": "address",
							"name": "token",
							"type": "address"
						},
						{
							"internalType": "uint256",
							"name": "amount",
							"type": "uint256"
						}
					],
					"name": "transferAsset",
					"outputs": [],
					"stateMutability": "nonpayable",
					"type": "function"
				}
			],
			"devdoc": {
				"kind": "dev",
				"methods": {},
				"version": 1
			},
			"evm": {
				"assembly": "    /* \"contracts/CrossChainAssetsManagement.sol\":120:1811  contract CrossChainAssetManagement {... */\n  mstore(0x40, 0x80)\n    /* \"contracts/CrossChainAssetsManagement.sol\":808:859  constructor() {... */\n  callvalue\n  dup1\n  iszero\n  tag_1\n  jumpi\n  0x00\n  dup1\n  revert\ntag_1:\n  pop\n    /* \"contracts/CrossChainAssetsManagement.sol\":841:851  msg.sender */\n  caller\n    /* \"contracts/CrossChainAssetsManagement.sol\":833:838  owner */\n  0x00\n  dup1\n    /* \"contracts/CrossChainAssetsManagement.sol\":833:851  owner = msg.sender */\n  0x0100\n  exp\n  dup2\n  sload\n  dup2\n  0xffffffffffffffffffffffffffffffffffffffff\n  mul\n  not\n  and\n  swap1\n  dup4\n  0xffffffffffffffffffffffffffffffffffffffff\n  and\n  mul\n  or\n  swap1\n  sstore\n  pop\n    /* \"contracts/CrossChainAssetsManagement.sol\":120:1811  contract CrossChainAssetManagement {... */\n  dataSize(sub_0)\n  dup1\n  dataOffset(sub_0)\n  0x00\n  codecopy\n  0x00\n  return\nstop\n\nsub_0: assembly {\n        /* \"contracts/CrossChainAssetsManagement.sol\":120:1811  contract CrossChainAssetManagement {... */\n      mstore(0x40, 0x80)\n      callvalue\n      dup1\n      iszero\n      tag_1\n      jumpi\n      0x00\n      dup1\n      revert\n    tag_1:\n      pop\n      jumpi(tag_2, lt(calldatasize, 0x04))\n      shr(0xe0, calldataload(0x00))\n      dup1\n      0x52f5973a\n      eq\n      tag_3\n      jumpi\n      dup1\n      0x8da5cb5b\n      eq\n      tag_4\n      jumpi\n      dup1\n      0x9991a202\n      eq\n      tag_5\n      jumpi\n    tag_2:\n      0x00\n      dup1\n      revert\n        /* \"contracts/CrossChainAssetsManagement.sol\":1064:1204  function setSupportedChain(address user, address chain) external onlyOwner {... */\n    tag_3:\n      tag_6\n      0x04\n      dup1\n      calldatasize\n      sub\n      dup2\n      add\n      swap1\n      tag_7\n      swap2\n      swap1\n      tag_8\n      jump\t// in\n    tag_7:\n      tag_9\n      jump\t// in\n    tag_6:\n      stop\n        /* \"contracts/CrossChainAssetsManagement.sol\":491:511  address public owner */\n    tag_4:\n      tag_10\n      tag_11\n      jump\t// in\n    tag_10:\n      mload(0x40)\n      tag_12\n      swap2\n      swap1\n      tag_13\n      jump\t// in\n    tag_12:\n      mload(0x40)\n      dup1\n      swap2\n      sub\n      swap1\n      return\n        /* \"contracts/CrossChainAssetsManagement.sol\":1249:1808  function transferAsset(... */\n    tag_5:\n      tag_14\n      0x04\n      dup1\n      calldatasize\n      sub\n      dup2\n      add\n      swap1\n      tag_15\n      swap2\n      swap1\n      tag_16\n      jump\t// in\n    tag_15:\n      tag_17\n      jump\t// in\n    tag_14:\n      stop\n        /* \"contracts/CrossChainAssetsManagement.sol\":1064:1204  function setSupportedChain(address user, address chain) external onlyOwner {... */\n    tag_9:\n        /* \"contracts/CrossChainAssetsManagement.sol\":921:926  owner */\n      0x00\n      dup1\n      sload\n      swap1\n      0x0100\n      exp\n      swap1\n      div\n      0xffffffffffffffffffffffffffffffffffffffff\n      and\n        /* \"contracts/CrossChainAssetsManagement.sol\":907:926  msg.sender == owner */\n      0xffffffffffffffffffffffffffffffffffffffff\n      and\n        /* \"contracts/CrossChainAssetsManagement.sol\":907:917  msg.sender */\n      caller\n        /* \"contracts/CrossChainAssetsManagement.sol\":907:926  msg.sender == owner */\n      0xffffffffffffffffffffffffffffffffffffffff\n      and\n      eq\n        /* \"contracts/CrossChainAssetsManagement.sol\":899:977  require(msg.sender == owner, \"Only the contract owner can call this function\") */\n      tag_19\n      jumpi\n      mload(0x40)\n      0x08c379a000000000000000000000000000000000000000000000000000000000\n      dup2\n      mstore\n      0x04\n      add\n      tag_20\n      swap1\n      tag_21\n      jump\t// in\n    tag_20:\n      mload(0x40)\n      dup1\n      swap2\n      sub\n      swap1\n      revert\n    tag_19:\n        /* \"contracts/CrossChainAssetsManagement.sol\":1192:1196  true */\n      0x01\n        /* \"contracts/CrossChainAssetsManagement.sol\":1150:1160  userAssets */\n      dup1\n        /* \"contracts/CrossChainAssetsManagement.sol\":1150:1166  userAssets[user] */\n      0x00\n        /* \"contracts/CrossChainAssetsManagement.sol\":1161:1165  user */\n      dup5\n        /* \"contracts/CrossChainAssetsManagement.sol\":1150:1166  userAssets[user] */\n      0xffffffffffffffffffffffffffffffffffffffff\n      and\n      0xffffffffffffffffffffffffffffffffffffffff\n      and\n      dup2\n      mstore\n      0x20\n      add\n      swap1\n      dup2\n      mstore\n      0x20\n      add\n      0x00\n      keccak256\n        /* \"contracts/CrossChainAssetsManagement.sol\":1150:1182  userAssets[user].supportedChains */\n      0x01\n      add\n        /* \"contracts/CrossChainAssetsManagement.sol\":1150:1189  userAssets[user].supportedChains[chain] */\n      0x00\n        /* \"contracts/CrossChainAssetsManagement.sol\":1183:1188  chain */\n      dup4\n        /* \"contracts/CrossChainAssetsManagement.sol\":1150:1189  userAssets[user].supportedChains[chain] */\n      0xffffffffffffffffffffffffffffffffffffffff\n      and\n      0xffffffffffffffffffffffffffffffffffffffff\n      and\n      dup2\n      mstore\n      0x20\n      add\n      swap1\n      dup2\n      mstore\n      0x20\n      add\n      0x00\n      keccak256\n      0x00\n        /* \"contracts/CrossChainAssetsManagement.sol\":1150:1196  userAssets[user].supportedChains[chain] = true */\n      0x0100\n      exp\n      dup2\n      sload\n      dup2\n      0xff\n      mul\n      not\n      and\n      swap1\n      dup4\n      iszero\n      iszero\n      mul\n      or\n      swap1\n      sstore\n      pop\n        /* \"contracts/CrossChainAssetsManagement.sol\":1064:1204  function setSupportedChain(address user, address chain) external onlyOwner {... */\n      pop\n      pop\n      jump\t// out\n        /* \"contracts/CrossChainAssetsManagement.sol\":491:511  address public owner */\n    tag_11:\n      0x00\n      dup1\n      sload\n      swap1\n      0x0100\n      exp\n      swap1\n      div\n      0xffffffffffffffffffffffffffffffffffffffff\n      and\n      dup2\n      jump\t// out\n        /* \"contracts/CrossChainAssetsManagement.sol\":1249:1808  function transferAsset(... */\n    tag_17:\n        /* \"contracts/CrossChainAssetsManagement.sol\":921:926  owner */\n      0x00\n      dup1\n      sload\n      swap1\n      0x0100\n      exp\n      swap1\n      div\n      0xffffffffffffffffffffffffffffffffffffffff\n      and\n        /* \"contracts/CrossChainAssetsManagement.sol\":907:926  msg.sender == owner */\n      0xffffffffffffffffffffffffffffffffffffffff\n      and\n        /* \"contracts/CrossChainAssetsManagement.sol\":907:917  msg.sender */\n      caller\n        /* \"contracts/CrossChainAssetsManagement.sol\":907:926  msg.sender == owner */\n      0xffffffffffffffffffffffffffffffffffffffff\n      and\n      eq\n        /* \"contracts/CrossChainAssetsManagement.sol\":899:977  require(msg.sender == owner, \"Only the contract owner can call this function\") */\n      tag_24\n      jumpi\n      mload(0x40)\n      0x08c379a000000000000000000000000000000000000000000000000000000000\n      dup2\n      mstore\n      0x04\n      add\n      tag_25\n      swap1\n      tag_21\n      jump\t// in\n    tag_25:\n      mload(0x40)\n      dup1\n      swap2\n      sub\n      swap1\n      revert\n    tag_24:\n        /* \"contracts/CrossChainAssetsManagement.sol\":1446:1452  amount */\n      dup1\n        /* \"contracts/CrossChainAssetsManagement.sol\":1410:1420  userAssets */\n      0x01\n        /* \"contracts/CrossChainAssetsManagement.sol\":1410:1426  userAssets[from] */\n      0x00\n        /* \"contracts/CrossChainAssetsManagement.sol\":1421:1425  from */\n      dup7\n        /* \"contracts/CrossChainAssetsManagement.sol\":1410:1426  userAssets[from] */\n      0xffffffffffffffffffffffffffffffffffffffff\n      and\n      0xffffffffffffffffffffffffffffffffffffffff\n      and\n      dup2\n      mstore\n      0x20\n      add\n      swap1\n      dup2\n      mstore\n      0x20\n      add\n      0x00\n      keccak256\n        /* \"contracts/CrossChainAssetsManagement.sol\":1410:1435  userAssets[from].balances */\n      0x00\n      add\n        /* \"contracts/CrossChainAssetsManagement.sol\":1410:1442  userAssets[from].balances[token] */\n      0x00\n        /* \"contracts/CrossChainAssetsManagement.sol\":1436:1441  token */\n      dup5\n        /* \"contracts/CrossChainAssetsManagement.sol\":1410:1442  userAssets[from].balances[token] */\n      0xffffffffffffffffffffffffffffffffffffffff\n      and\n      0xffffffffffffffffffffffffffffffffffffffff\n      and\n      dup2\n      mstore\n      0x20\n      add\n      swap1\n      dup2\n      mstore\n      0x20\n      add\n      0x00\n      keccak256\n      sload\n        /* \"contracts/CrossChainAssetsManagement.sol\":1410:1452  userAssets[from].balances[token] >= amount */\n      lt\n      iszero\n        /* \"contracts/CrossChainAssetsManagement.sol\":1402:1477  require(userAssets[from].balances[token] >= amount, \"Insufficient balance\") */\n      tag_27\n      jumpi\n      mload(0x40)\n      0x08c379a000000000000000000000000000000000000000000000000000000000\n      dup2\n      mstore\n      0x04\n      add\n      tag_28\n      swap1\n      tag_29\n      jump\t// in\n    tag_28:\n      mload(0x40)\n      dup1\n      swap2\n      sub\n      swap1\n      revert\n    tag_27:\n        /* \"contracts/CrossChainAssetsManagement.sol\":1526:1531  token */\n      dup2\n        /* \"contracts/CrossChainAssetsManagement.sol\":1519:1545  IERC20(token).transferFrom */\n      0xffffffffffffffffffffffffffffffffffffffff\n      and\n      0x23b872dd\n        /* \"contracts/CrossChainAssetsManagement.sol\":1546:1550  from */\n      dup6\n        /* \"contracts/CrossChainAssetsManagement.sol\":1552:1554  to */\n      dup6\n        /* \"contracts/CrossChainAssetsManagement.sol\":1556:1562  amount */\n      dup5\n        /* \"contracts/CrossChainAssetsManagement.sol\":1519:1563  IERC20(token).transferFrom(from, to, amount) */\n      mload(0x40)\n      dup5\n      0xffffffff\n      and\n      0xe0\n      shl\n      dup2\n      mstore\n      0x04\n      add\n      tag_30\n      swap4\n      swap3\n      swap2\n      swap1\n      tag_31\n      jump\t// in\n    tag_30:\n      0x20\n      mload(0x40)\n      dup1\n      dup4\n      sub\n      dup2\n      0x00\n      dup8\n      gas\n      call\n      iszero\n      dup1\n      iszero\n      tag_33\n      jumpi\n      returndatasize\n      0x00\n      dup1\n      returndatacopy\n      revert(0x00, returndatasize)\n    tag_33:\n      pop\n      pop\n      pop\n      pop\n      mload(0x40)\n      returndatasize\n      not(0x1f)\n      0x1f\n      dup3\n      add\n      and\n      dup3\n      add\n      dup1\n      0x40\n      mstore\n      pop\n      dup2\n      add\n      swap1\n      tag_34\n      swap2\n      swap1\n      tag_35\n      jump\t// in\n    tag_34:\n      pop\n        /* \"contracts/CrossChainAssetsManagement.sol\":1643:1649  amount */\n      dup1\n        /* \"contracts/CrossChainAssetsManagement.sol\":1607:1617  userAssets */\n      0x01\n        /* \"contracts/CrossChainAssetsManagement.sol\":1607:1623  userAssets[from] */\n      0x00\n        /* \"contracts/CrossChainAssetsManagement.sol\":1618:1622  from */\n      dup7\n        /* \"contracts/CrossChainAssetsManagement.sol\":1607:1623  userAssets[from] */\n      0xffffffffffffffffffffffffffffffffffffffff\n      and\n      0xffffffffffffffffffffffffffffffffffffffff\n      and\n      dup2\n      mstore\n      0x20\n      add\n      swap1\n      dup2\n      mstore\n      0x20\n      add\n      0x00\n      keccak256\n        /* \"contracts/CrossChainAssetsManagement.sol\":1607:1632  userAssets[from].balances */\n      0x00\n      add\n        /* \"contracts/CrossChainAssetsManagement.sol\":1607:1639  userAssets[from].balances[token] */\n      0x00\n        /* \"contracts/CrossChainAssetsManagement.sol\":1633:1638  token */\n      dup5\n        /* \"contracts/CrossChainAssetsManagement.sol\":1607:1639  userAssets[from].balances[token] */\n      0xffffffffffffffffffffffffffffffffffffffff\n      and\n      0xffffffffffffffffffffffffffffffffffffffff\n      and\n      dup2\n      mstore\n      0x20\n      add\n      swap1\n      dup2\n      mstore\n      0x20\n      add\n      0x00\n      keccak256\n      0x00\n        /* \"contracts/CrossChainAssetsManagement.sol\":1607:1649  userAssets[from].balances[token] -= amount */\n      dup3\n      dup3\n      sload\n      tag_36\n      swap2\n      swap1\n      tag_37\n      jump\t// in\n    tag_36:\n      swap3\n      pop\n      pop\n      dup2\n      swap1\n      sstore\n      pop\n        /* \"contracts/CrossChainAssetsManagement.sol\":1694:1700  amount */\n      dup1\n        /* \"contracts/CrossChainAssetsManagement.sol\":1660:1670  userAssets */\n      0x01\n        /* \"contracts/CrossChainAssetsManagement.sol\":1660:1674  userAssets[to] */\n      0x00\n        /* \"contracts/CrossChainAssetsManagement.sol\":1671:1673  to */\n      dup6\n        /* \"contracts/CrossChainAssetsManagement.sol\":1660:1674  userAssets[to] */\n      0xffffffffffffffffffffffffffffffffffffffff\n      and\n      0xffffffffffffffffffffffffffffffffffffffff\n      and\n      dup2\n      mstore\n      0x20\n      add\n      swap1\n      dup2\n      mstore\n      0x20\n      add\n      0x00\n      keccak256\n        /* \"contracts/CrossChainAssetsManagement.sol\":1660:1683  userAssets[to].balances */\n      0x00\n      add\n        /* \"contracts/CrossChainAssetsManagement.sol\":1660:1690  userAssets[to].balances[token] */\n      0x00\n        /* \"contracts/CrossChainAssetsManagement.sol\":1684:1689  token */\n      dup5\n        /* \"contracts/CrossChainAssetsManagement.sol\":1660:1690  userAssets[to].balances[token] */\n      0xffffffffffffffffffffffffffffffffffffffff\n      and\n      0xffffffffffffffffffffffffffffffffffffffff\n      and\n      dup2\n      mstore\n      0x20\n      add\n      swap1\n      dup2\n      mstore\n      0x20\n      add\n      0x00\n      keccak256\n      0x00\n        /* \"contracts/CrossChainAssetsManagement.sol\":1660:1700  userAssets[to].balances[token] += amount */\n      dup3\n      dup3\n      sload\n      tag_38\n      swap2\n      swap1\n      tag_39\n      jump\t// in\n    tag_38:\n      swap3\n      pop\n      pop\n      dup2\n      swap1\n      sstore\n      pop\n        /* \"contracts/CrossChainAssetsManagement.sol\":1786:1791  token */\n      dup2\n        /* \"contracts/CrossChainAssetsManagement.sol\":1759:1800  AssetTransferred(from, to, token, amount) */\n      0xffffffffffffffffffffffffffffffffffffffff\n      and\n        /* \"contracts/CrossChainAssetsManagement.sol\":1782:1784  to */\n      dup4\n        /* \"contracts/CrossChainAssetsManagement.sol\":1759:1800  AssetTransferred(from, to, token, amount) */\n      0xffffffffffffffffffffffffffffffffffffffff\n      and\n        /* \"contracts/CrossChainAssetsManagement.sol\":1776:1780  from */\n      dup6\n        /* \"contracts/CrossChainAssetsManagement.sol\":1759:1800  AssetTransferred(from, to, token, amount) */\n      0xffffffffffffffffffffffffffffffffffffffff\n      and\n      0x25137ec1c481240ec1a0e55c3c8c5f5e3467c1a66454f84fb39c963378cc0e77\n        /* \"contracts/CrossChainAssetsManagement.sol\":1793:1799  amount */\n      dup5\n        /* \"contracts/CrossChainAssetsManagement.sol\":1759:1800  AssetTransferred(from, to, token, amount) */\n      mload(0x40)\n      tag_40\n      swap2\n      swap1\n      tag_41\n      jump\t// in\n    tag_40:\n      mload(0x40)\n      dup1\n      swap2\n      sub\n      swap1\n      log4\n        /* \"contracts/CrossChainAssetsManagement.sol\":1249:1808  function transferAsset(... */\n      pop\n      pop\n      pop\n      pop\n      jump\t// out\n        /* \"#utility.yul\":88:205   */\n    tag_43:\n        /* \"#utility.yul\":197:198   */\n      0x00\n        /* \"#utility.yul\":194:195   */\n      dup1\n        /* \"#utility.yul\":187:199   */\n      revert\n        /* \"#utility.yul\":334:460   */\n    tag_45:\n        /* \"#utility.yul\":371:378   */\n      0x00\n        /* \"#utility.yul\":411:453   */\n      0xffffffffffffffffffffffffffffffffffffffff\n        /* \"#utility.yul\":404:409   */\n      dup3\n        /* \"#utility.yul\":400:454   */\n      and\n        /* \"#utility.yul\":389:454   */\n      swap1\n      pop\n        /* \"#utility.yul\":334:460   */\n      swap2\n      swap1\n      pop\n      jump\t// out\n        /* \"#utility.yul\":466:562   */\n    tag_46:\n        /* \"#utility.yul\":503:510   */\n      0x00\n        /* \"#utility.yul\":532:556   */\n      tag_69\n        /* \"#utility.yul\":550:555   */\n      dup3\n        /* \"#utility.yul\":532:556   */\n      tag_45\n      jump\t// in\n    tag_69:\n        /* \"#utility.yul\":521:556   */\n      swap1\n      pop\n        /* \"#utility.yul\":466:562   */\n      swap2\n      swap1\n      pop\n      jump\t// out\n        /* \"#utility.yul\":568:690   */\n    tag_47:\n        /* \"#utility.yul\":641:665   */\n      tag_71\n        /* \"#utility.yul\":659:664   */\n      dup2\n        /* \"#utility.yul\":641:665   */\n      tag_46\n      jump\t// in\n    tag_71:\n        /* \"#utility.yul\":634:639   */\n      dup2\n        /* \"#utility.yul\":631:666   */\n      eq\n        /* \"#utility.yul\":621:684   */\n      tag_72\n      jumpi\n        /* \"#utility.yul\":680:681   */\n      0x00\n        /* \"#utility.yul\":677:678   */\n      dup1\n        /* \"#utility.yul\":670:682   */\n      revert\n        /* \"#utility.yul\":621:684   */\n    tag_72:\n        /* \"#utility.yul\":568:690   */\n      pop\n      jump\t// out\n        /* \"#utility.yul\":696:835   */\n    tag_48:\n        /* \"#utility.yul\":742:747   */\n      0x00\n        /* \"#utility.yul\":780:786   */\n      dup2\n        /* \"#utility.yul\":767:787   */\n      calldataload\n        /* \"#utility.yul\":758:787   */\n      swap1\n      pop\n        /* \"#utility.yul\":796:829   */\n      tag_74\n        /* \"#utility.yul\":823:828   */\n      dup2\n        /* \"#utility.yul\":796:829   */\n      tag_47\n      jump\t// in\n    tag_74:\n        /* \"#utility.yul\":696:835   */\n      swap3\n      swap2\n      pop\n      pop\n      jump\t// out\n        /* \"#utility.yul\":841:1315   */\n    tag_8:\n        /* \"#utility.yul\":909:915   */\n      0x00\n        /* \"#utility.yul\":917:923   */\n      dup1\n        /* \"#utility.yul\":966:968   */\n      0x40\n        /* \"#utility.yul\":954:963   */\n      dup4\n        /* \"#utility.yul\":945:952   */\n      dup6\n        /* \"#utility.yul\":941:964   */\n      sub\n        /* \"#utility.yul\":937:969   */\n      slt\n        /* \"#utility.yul\":934:1053   */\n      iszero\n      tag_76\n      jumpi\n        /* \"#utility.yul\":972:1051   */\n      tag_77\n      tag_43\n      jump\t// in\n    tag_77:\n        /* \"#utility.yul\":934:1053   */\n    tag_76:\n        /* \"#utility.yul\":1092:1093   */\n      0x00\n        /* \"#utility.yul\":1117:1170   */\n      tag_78\n        /* \"#utility.yul\":1162:1169   */\n      dup6\n        /* \"#utility.yul\":1153:1159   */\n      dup3\n        /* \"#utility.yul\":1142:1151   */\n      dup7\n        /* \"#utility.yul\":1138:1160   */\n      add\n        /* \"#utility.yul\":1117:1170   */\n      tag_48\n      jump\t// in\n    tag_78:\n        /* \"#utility.yul\":1107:1170   */\n      swap3\n      pop\n        /* \"#utility.yul\":1063:1180   */\n      pop\n        /* \"#utility.yul\":1219:1221   */\n      0x20\n        /* \"#utility.yul\":1245:1298   */\n      tag_79\n        /* \"#utility.yul\":1290:1297   */\n      dup6\n        /* \"#utility.yul\":1281:1287   */\n      dup3\n        /* \"#utility.yul\":1270:1279   */\n      dup7\n        /* \"#utility.yul\":1266:1288   */\n      add\n        /* \"#utility.yul\":1245:1298   */\n      tag_48\n      jump\t// in\n    tag_79:\n        /* \"#utility.yul\":1235:1298   */\n      swap2\n      pop\n        /* \"#utility.yul\":1190:1308   */\n      pop\n        /* \"#utility.yul\":841:1315   */\n      swap3\n      pop\n      swap3\n      swap1\n      pop\n      jump\t// out\n        /* \"#utility.yul\":1321:1439   */\n    tag_49:\n        /* \"#utility.yul\":1408:1432   */\n      tag_81\n        /* \"#utility.yul\":1426:1431   */\n      dup2\n        /* \"#utility.yul\":1408:1432   */\n      tag_46\n      jump\t// in\n    tag_81:\n        /* \"#utility.yul\":1403:1406   */\n      dup3\n        /* \"#utility.yul\":1396:1433   */\n      mstore\n        /* \"#utility.yul\":1321:1439   */\n      pop\n      pop\n      jump\t// out\n        /* \"#utility.yul\":1445:1667   */\n    tag_13:\n        /* \"#utility.yul\":1538:1542   */\n      0x00\n        /* \"#utility.yul\":1576:1578   */\n      0x20\n        /* \"#utility.yul\":1565:1574   */\n      dup3\n        /* \"#utility.yul\":1561:1579   */\n      add\n        /* \"#utility.yul\":1553:1579   */\n      swap1\n      pop\n        /* \"#utility.yul\":1589:1660   */\n      tag_83\n        /* \"#utility.yul\":1657:1658   */\n      0x00\n        /* \"#utility.yul\":1646:1655   */\n      dup4\n        /* \"#utility.yul\":1642:1659   */\n      add\n        /* \"#utility.yul\":1633:1639   */\n      dup5\n        /* \"#utility.yul\":1589:1660   */\n      tag_49\n      jump\t// in\n    tag_83:\n        /* \"#utility.yul\":1445:1667   */\n      swap3\n      swap2\n      pop\n      pop\n      jump\t// out\n        /* \"#utility.yul\":1673:1750   */\n    tag_50:\n        /* \"#utility.yul\":1710:1717   */\n      0x00\n        /* \"#utility.yul\":1739:1744   */\n      dup2\n        /* \"#utility.yul\":1728:1744   */\n      swap1\n      pop\n        /* \"#utility.yul\":1673:1750   */\n      swap2\n      swap1\n      pop\n      jump\t// out\n        /* \"#utility.yul\":1756:1878   */\n    tag_51:\n        /* \"#utility.yul\":1829:1853   */\n      tag_86\n        /* \"#utility.yul\":1847:1852   */\n      dup2\n        /* \"#utility.yul\":1829:1853   */\n      tag_50\n      jump\t// in\n    tag_86:\n        /* \"#utility.yul\":1822:1827   */\n      dup2\n        /* \"#utility.yul\":1819:1854   */\n      eq\n        /* \"#utility.yul\":1809:1872   */\n      tag_87\n      jumpi\n        /* \"#utility.yul\":1868:1869   */\n      0x00\n        /* \"#utility.yul\":1865:1866   */\n      dup1\n        /* \"#utility.yul\":1858:1870   */\n      revert\n        /* \"#utility.yul\":1809:1872   */\n    tag_87:\n        /* \"#utility.yul\":1756:1878   */\n      pop\n      jump\t// out\n        /* \"#utility.yul\":1884:2023   */\n    tag_52:\n        /* \"#utility.yul\":1930:1935   */\n      0x00\n        /* \"#utility.yul\":1968:1974   */\n      dup2\n        /* \"#utility.yul\":1955:1975   */\n      calldataload\n        /* \"#utility.yul\":1946:1975   */\n      swap1\n      pop\n        /* \"#utility.yul\":1984:2017   */\n      tag_89\n        /* \"#utility.yul\":2011:2016   */\n      dup2\n        /* \"#utility.yul\":1984:2017   */\n      tag_51\n      jump\t// in\n    tag_89:\n        /* \"#utility.yul\":1884:2023   */\n      swap3\n      swap2\n      pop\n      pop\n      jump\t// out\n        /* \"#utility.yul\":2029:2794   */\n    tag_16:\n        /* \"#utility.yul\":2115:2121   */\n      0x00\n        /* \"#utility.yul\":2123:2129   */\n      dup1\n        /* \"#utility.yul\":2131:2137   */\n      0x00\n        /* \"#utility.yul\":2139:2145   */\n      dup1\n        /* \"#utility.yul\":2188:2191   */\n      0x80\n        /* \"#utility.yul\":2176:2185   */\n      dup6\n        /* \"#utility.yul\":2167:2174   */\n      dup8\n        /* \"#utility.yul\":2163:2186   */\n      sub\n        /* \"#utility.yul\":2159:2192   */\n      slt\n        /* \"#utility.yul\":2156:2276   */\n      iszero\n      tag_91\n      jumpi\n        /* \"#utility.yul\":2195:2274   */\n      tag_92\n      tag_43\n      jump\t// in\n    tag_92:\n        /* \"#utility.yul\":2156:2276   */\n    tag_91:\n        /* \"#utility.yul\":2315:2316   */\n      0x00\n        /* \"#utility.yul\":2340:2393   */\n      tag_93\n        /* \"#utility.yul\":2385:2392   */\n      dup8\n        /* \"#utility.yul\":2376:2382   */\n      dup3\n        /* \"#utility.yul\":2365:2374   */\n      dup9\n        /* \"#utility.yul\":2361:2383   */\n      add\n        /* \"#utility.yul\":2340:2393   */\n      tag_48\n      jump\t// in\n    tag_93:\n        /* \"#utility.yul\":2330:2393   */\n      swap5\n      pop\n        /* \"#utility.yul\":2286:2403   */\n      pop\n        /* \"#utility.yul\":2442:2444   */\n      0x20\n        /* \"#utility.yul\":2468:2521   */\n      tag_94\n        /* \"#utility.yul\":2513:2520   */\n      dup8\n        /* \"#utility.yul\":2504:2510   */\n      dup3\n        /* \"#utility.yul\":2493:2502   */\n      dup9\n        /* \"#utility.yul\":2489:2511   */\n      add\n        /* \"#utility.yul\":2468:2521   */\n      tag_48\n      jump\t// in\n    tag_94:\n        /* \"#utility.yul\":2458:2521   */\n      swap4\n      pop\n        /* \"#utility.yul\":2413:2531   */\n      pop\n        /* \"#utility.yul\":2570:2572   */\n      0x40\n        /* \"#utility.yul\":2596:2649   */\n      tag_95\n        /* \"#utility.yul\":2641:2648   */\n      dup8\n        /* \"#utility.yul\":2632:2638   */\n      dup3\n        /* \"#utility.yul\":2621:2630   */\n      dup9\n        /* \"#utility.yul\":2617:2639   */\n      add\n        /* \"#utility.yul\":2596:2649   */\n      tag_48\n      jump\t// in\n    tag_95:\n        /* \"#utility.yul\":2586:2649   */\n      swap3\n      pop\n        /* \"#utility.yul\":2541:2659   */\n      pop\n        /* \"#utility.yul\":2698:2700   */\n      0x60\n        /* \"#utility.yul\":2724:2777   */\n      tag_96\n        /* \"#utility.yul\":2769:2776   */\n      dup8\n        /* \"#utility.yul\":2760:2766   */\n      dup3\n        /* \"#utility.yul\":2749:2758   */\n      dup9\n        /* \"#utility.yul\":2745:2767   */\n      add\n        /* \"#utility.yul\":2724:2777   */\n      tag_52\n      jump\t// in\n    tag_96:\n        /* \"#utility.yul\":2714:2777   */\n      swap2\n      pop\n        /* \"#utility.yul\":2669:2787   */\n      pop\n        /* \"#utility.yul\":2029:2794   */\n      swap3\n      swap6\n      swap2\n      swap5\n      pop\n      swap3\n      pop\n      jump\t// out\n        /* \"#utility.yul\":2800:2969   */\n    tag_53:\n        /* \"#utility.yul\":2884:2895   */\n      0x00\n        /* \"#utility.yul\":2918:2924   */\n      dup3\n        /* \"#utility.yul\":2913:2916   */\n      dup3\n        /* \"#utility.yul\":2906:2925   */\n      mstore\n        /* \"#utility.yul\":2958:2962   */\n      0x20\n        /* \"#utility.yul\":2953:2956   */\n      dup3\n        /* \"#utility.yul\":2949:2963   */\n      add\n        /* \"#utility.yul\":2934:2963   */\n      swap1\n      pop\n        /* \"#utility.yul\":2800:2969   */\n      swap3\n      swap2\n      pop\n      pop\n      jump\t// out\n        /* \"#utility.yul\":2975:3208   */\n    tag_54:\n        /* \"#utility.yul\":3115:3149   */\n      0x4f6e6c792074686520636f6e7472616374206f776e65722063616e2063616c6c\n        /* \"#utility.yul\":3111:3112   */\n      0x00\n        /* \"#utility.yul\":3103:3109   */\n      dup3\n        /* \"#utility.yul\":3099:3113   */\n      add\n        /* \"#utility.yul\":3092:3150   */\n      mstore\n        /* \"#utility.yul\":3184:3200   */\n      0x20746869732066756e6374696f6e000000000000000000000000000000000000\n        /* \"#utility.yul\":3179:3181   */\n      0x20\n        /* \"#utility.yul\":3171:3177   */\n      dup3\n        /* \"#utility.yul\":3167:3182   */\n      add\n        /* \"#utility.yul\":3160:3201   */\n      mstore\n        /* \"#utility.yul\":2975:3208   */\n      pop\n      jump\t// out\n        /* \"#utility.yul\":3214:3580   */\n    tag_55:\n        /* \"#utility.yul\":3356:3359   */\n      0x00\n        /* \"#utility.yul\":3377:3444   */\n      tag_100\n        /* \"#utility.yul\":3441:3443   */\n      0x2e\n        /* \"#utility.yul\":3436:3439   */\n      dup4\n        /* \"#utility.yul\":3377:3444   */\n      tag_53\n      jump\t// in\n    tag_100:\n        /* \"#utility.yul\":3370:3444   */\n      swap2\n      pop\n        /* \"#utility.yul\":3453:3546   */\n      tag_101\n        /* \"#utility.yul\":3542:3545   */\n      dup3\n        /* \"#utility.yul\":3453:3546   */\n      tag_54\n      jump\t// in\n    tag_101:\n        /* \"#utility.yul\":3571:3573   */\n      0x40\n        /* \"#utility.yul\":3566:3569   */\n      dup3\n        /* \"#utility.yul\":3562:3574   */\n      add\n        /* \"#utility.yul\":3555:3574   */\n      swap1\n      pop\n        /* \"#utility.yul\":3214:3580   */\n      swap2\n      swap1\n      pop\n      jump\t// out\n        /* \"#utility.yul\":3586:4005   */\n    tag_21:\n        /* \"#utility.yul\":3752:3756   */\n      0x00\n        /* \"#utility.yul\":3790:3792   */\n      0x20\n        /* \"#utility.yul\":3779:3788   */\n      dup3\n        /* \"#utility.yul\":3775:3793   */\n      add\n        /* \"#utility.yul\":3767:3793   */\n      swap1\n      pop\n        /* \"#utility.yul\":3839:3848   */\n      dup2\n        /* \"#utility.yul\":3833:3837   */\n      dup2\n        /* \"#utility.yul\":3829:3849   */\n      sub\n        /* \"#utility.yul\":3825:3826   */\n      0x00\n        /* \"#utility.yul\":3814:3823   */\n      dup4\n        /* \"#utility.yul\":3810:3827   */\n      add\n        /* \"#utility.yul\":3803:3850   */\n      mstore\n        /* \"#utility.yul\":3867:3998   */\n      tag_103\n        /* \"#utility.yul\":3993:3997   */\n      dup2\n        /* \"#utility.yul\":3867:3998   */\n      tag_55\n      jump\t// in\n    tag_103:\n        /* \"#utility.yul\":3859:3998   */\n      swap1\n      pop\n        /* \"#utility.yul\":3586:4005   */\n      swap2\n      swap1\n      pop\n      jump\t// out\n        /* \"#utility.yul\":4011:4181   */\n    tag_56:\n        /* \"#utility.yul\":4151:4173   */\n      0x496e73756666696369656e742062616c616e6365000000000000000000000000\n        /* \"#utility.yul\":4147:4148   */\n      0x00\n        /* \"#utility.yul\":4139:4145   */\n      dup3\n        /* \"#utility.yul\":4135:4149   */\n      add\n        /* \"#utility.yul\":4128:4174   */\n      mstore\n        /* \"#utility.yul\":4011:4181   */\n      pop\n      jump\t// out\n        /* \"#utility.yul\":4187:4553   */\n    tag_57:\n        /* \"#utility.yul\":4329:4332   */\n      0x00\n        /* \"#utility.yul\":4350:4417   */\n      tag_106\n        /* \"#utility.yul\":4414:4416   */\n      0x14\n        /* \"#utility.yul\":4409:4412   */\n      dup4\n        /* \"#utility.yul\":4350:4417   */\n      tag_53\n      jump\t// in\n    tag_106:\n        /* \"#utility.yul\":4343:4417   */\n      swap2\n      pop\n        /* \"#utility.yul\":4426:4519   */\n      tag_107\n        /* \"#utility.yul\":4515:4518   */\n      dup3\n        /* \"#utility.yul\":4426:4519   */\n      tag_56\n      jump\t// in\n    tag_107:\n        /* \"#utility.yul\":4544:4546   */\n      0x20\n        /* \"#utility.yul\":4539:4542   */\n      dup3\n        /* \"#utility.yul\":4535:4547   */\n      add\n        /* \"#utility.yul\":4528:4547   */\n      swap1\n      pop\n        /* \"#utility.yul\":4187:4553   */\n      swap2\n      swap1\n      pop\n      jump\t// out\n        /* \"#utility.yul\":4559:4978   */\n    tag_29:\n        /* \"#utility.yul\":4725:4729   */\n      0x00\n        /* \"#utility.yul\":4763:4765   */\n      0x20\n        /* \"#utility.yul\":4752:4761   */\n      dup3\n        /* \"#utility.yul\":4748:4766   */\n      add\n        /* \"#utility.yul\":4740:4766   */\n      swap1\n      pop\n        /* \"#utility.yul\":4812:4821   */\n      dup2\n        /* \"#utility.yul\":4806:4810   */\n      dup2\n        /* \"#utility.yul\":4802:4822   */\n      sub\n        /* \"#utility.yul\":4798:4799   */\n      0x00\n        /* \"#utility.yul\":4787:4796   */\n      dup4\n        /* \"#utility.yul\":4783:4800   */\n      add\n        /* \"#utility.yul\":4776:4823   */\n      mstore\n        /* \"#utility.yul\":4840:4971   */\n      tag_109\n        /* \"#utility.yul\":4966:4970   */\n      dup2\n        /* \"#utility.yul\":4840:4971   */\n      tag_57\n      jump\t// in\n    tag_109:\n        /* \"#utility.yul\":4832:4971   */\n      swap1\n      pop\n        /* \"#utility.yul\":4559:4978   */\n      swap2\n      swap1\n      pop\n      jump\t// out\n        /* \"#utility.yul\":4984:5102   */\n    tag_58:\n        /* \"#utility.yul\":5071:5095   */\n      tag_111\n        /* \"#utility.yul\":5089:5094   */\n      dup2\n        /* \"#utility.yul\":5071:5095   */\n      tag_50\n      jump\t// in\n    tag_111:\n        /* \"#utility.yul\":5066:5069   */\n      dup3\n        /* \"#utility.yul\":5059:5096   */\n      mstore\n        /* \"#utility.yul\":4984:5102   */\n      pop\n      pop\n      jump\t// out\n        /* \"#utility.yul\":5108:5550   */\n    tag_31:\n        /* \"#utility.yul\":5257:5261   */\n      0x00\n        /* \"#utility.yul\":5295:5297   */\n      0x60\n        /* \"#utility.yul\":5284:5293   */\n      dup3\n        /* \"#utility.yul\":5280:5298   */\n      add\n        /* \"#utility.yul\":5272:5298   */\n      swap1\n      pop\n        /* \"#utility.yul\":5308:5379   */\n      tag_113\n        /* \"#utility.yul\":5376:5377   */\n      0x00\n        /* \"#utility.yul\":5365:5374   */\n      dup4\n        /* \"#utility.yul\":5361:5378   */\n      add\n        /* \"#utility.yul\":5352:5358   */\n      dup7\n        /* \"#utility.yul\":5308:5379   */\n      tag_49\n      jump\t// in\n    tag_113:\n        /* \"#utility.yul\":5389:5461   */\n      tag_114\n        /* \"#utility.yul\":5457:5459   */\n      0x20\n        /* \"#utility.yul\":5446:5455   */\n      dup4\n        /* \"#utility.yul\":5442:5460   */\n      add\n        /* \"#utility.yul\":5433:5439   */\n      dup6\n        /* \"#utility.yul\":5389:5461   */\n      tag_49\n      jump\t// in\n    tag_114:\n        /* \"#utility.yul\":5471:5543   */\n      tag_115\n        /* \"#utility.yul\":5539:5541   */\n      0x40\n        /* \"#utility.yul\":5528:5537   */\n      dup4\n        /* \"#utility.yul\":5524:5542   */\n      add\n        /* \"#utility.yul\":5515:5521   */\n      dup5\n        /* \"#utility.yul\":5471:5543   */\n      tag_58\n      jump\t// in\n    tag_115:\n        /* \"#utility.yul\":5108:5550   */\n      swap5\n      swap4\n      pop\n      pop\n      pop\n      pop\n      jump\t// out\n        /* \"#utility.yul\":5556:5646   */\n    tag_59:\n        /* \"#utility.yul\":5590:5597   */\n      0x00\n        /* \"#utility.yul\":5633:5638   */\n      dup2\n        /* \"#utility.yul\":5626:5639   */\n      iszero\n        /* \"#utility.yul\":5619:5640   */\n      iszero\n        /* \"#utility.yul\":5608:5640   */\n      swap1\n      pop\n        /* \"#utility.yul\":5556:5646   */\n      swap2\n      swap1\n      pop\n      jump\t// out\n        /* \"#utility.yul\":5652:5768   */\n    tag_60:\n        /* \"#utility.yul\":5722:5743   */\n      tag_118\n        /* \"#utility.yul\":5737:5742   */\n      dup2\n        /* \"#utility.yul\":5722:5743   */\n      tag_59\n      jump\t// in\n    tag_118:\n        /* \"#utility.yul\":5715:5720   */\n      dup2\n        /* \"#utility.yul\":5712:5744   */\n      eq\n        /* \"#utility.yul\":5702:5762   */\n      tag_119\n      jumpi\n        /* \"#utility.yul\":5758:5759   */\n      0x00\n        /* \"#utility.yul\":5755:5756   */\n      dup1\n        /* \"#utility.yul\":5748:5760   */\n      revert\n        /* \"#utility.yul\":5702:5762   */\n    tag_119:\n        /* \"#utility.yul\":5652:5768   */\n      pop\n      jump\t// out\n        /* \"#utility.yul\":5774:5911   */\n    tag_61:\n        /* \"#utility.yul\":5828:5833   */\n      0x00\n        /* \"#utility.yul\":5859:5865   */\n      dup2\n        /* \"#utility.yul\":5853:5866   */\n      mload\n        /* \"#utility.yul\":5844:5866   */\n      swap1\n      pop\n        /* \"#utility.yul\":5875:5905   */\n      tag_121\n        /* \"#utility.yul\":5899:5904   */\n      dup2\n        /* \"#utility.yul\":5875:5905   */\n      tag_60\n      jump\t// in\n    tag_121:\n        /* \"#utility.yul\":5774:5911   */\n      swap3\n      swap2\n      pop\n      pop\n      jump\t// out\n        /* \"#utility.yul\":5917:6262   */\n    tag_35:\n        /* \"#utility.yul\":5984:5990   */\n      0x00\n        /* \"#utility.yul\":6033:6035   */\n      0x20\n        /* \"#utility.yul\":6021:6030   */\n      dup3\n        /* \"#utility.yul\":6012:6019   */\n      dup5\n        /* \"#utility.yul\":6008:6031   */\n      sub\n        /* \"#utility.yul\":6004:6036   */\n      slt\n        /* \"#utility.yul\":6001:6120   */\n      iszero\n      tag_123\n      jumpi\n        /* \"#utility.yul\":6039:6118   */\n      tag_124\n      tag_43\n      jump\t// in\n    tag_124:\n        /* \"#utility.yul\":6001:6120   */\n    tag_123:\n        /* \"#utility.yul\":6159:6160   */\n      0x00\n        /* \"#utility.yul\":6184:6245   */\n      tag_125\n        /* \"#utility.yul\":6237:6244   */\n      dup5\n        /* \"#utility.yul\":6228:6234   */\n      dup3\n        /* \"#utility.yul\":6217:6226   */\n      dup6\n        /* \"#utility.yul\":6213:6235   */\n      add\n        /* \"#utility.yul\":6184:6245   */\n      tag_61\n      jump\t// in\n    tag_125:\n        /* \"#utility.yul\":6174:6245   */\n      swap2\n      pop\n        /* \"#utility.yul\":6130:6255   */\n      pop\n        /* \"#utility.yul\":5917:6262   */\n      swap3\n      swap2\n      pop\n      pop\n      jump\t// out\n        /* \"#utility.yul\":6268:6448   */\n    tag_62:\n        /* \"#utility.yul\":6316:6393   */\n      0x4e487b7100000000000000000000000000000000000000000000000000000000\n        /* \"#utility.yul\":6313:6314   */\n      0x00\n        /* \"#utility.yul\":6306:6394   */\n      mstore\n        /* \"#utility.yul\":6413:6417   */\n      0x11\n        /* \"#utility.yul\":6410:6411   */\n      0x04\n        /* \"#utility.yul\":6403:6418   */\n      mstore\n        /* \"#utility.yul\":6437:6441   */\n      0x24\n        /* \"#utility.yul\":6434:6435   */\n      0x00\n        /* \"#utility.yul\":6427:6442   */\n      revert\n        /* \"#utility.yul\":6454:6648   */\n    tag_37:\n        /* \"#utility.yul\":6494:6498   */\n      0x00\n        /* \"#utility.yul\":6514:6534   */\n      tag_128\n        /* \"#utility.yul\":6532:6533   */\n      dup3\n        /* \"#utility.yul\":6514:6534   */\n      tag_50\n      jump\t// in\n    tag_128:\n        /* \"#utility.yul\":6509:6534   */\n      swap2\n      pop\n        /* \"#utility.yul\":6548:6568   */\n      tag_129\n        /* \"#utility.yul\":6566:6567   */\n      dup4\n        /* \"#utility.yul\":6548:6568   */\n      tag_50\n      jump\t// in\n    tag_129:\n        /* \"#utility.yul\":6543:6568   */\n      swap3\n      pop\n        /* \"#utility.yul\":6592:6593   */\n      dup3\n        /* \"#utility.yul\":6589:6590   */\n      dup3\n        /* \"#utility.yul\":6585:6594   */\n      sub\n        /* \"#utility.yul\":6577:6594   */\n      swap1\n      pop\n        /* \"#utility.yul\":6616:6617   */\n      dup2\n        /* \"#utility.yul\":6610:6614   */\n      dup2\n        /* \"#utility.yul\":6607:6618   */\n      gt\n        /* \"#utility.yul\":6604:6641   */\n      iszero\n      tag_130\n      jumpi\n        /* \"#utility.yul\":6621:6639   */\n      tag_131\n      tag_62\n      jump\t// in\n    tag_131:\n        /* \"#utility.yul\":6604:6641   */\n    tag_130:\n        /* \"#utility.yul\":6454:6648   */\n      swap3\n      swap2\n      pop\n      pop\n      jump\t// out\n        /* \"#utility.yul\":6654:6845   */\n    tag_39:\n        /* \"#utility.yul\":6694:6697   */\n      0x00\n        /* \"#utility.yul\":6713:6733   */\n      tag_133\n        /* \"#utility.yul\":6731:6732   */\n      dup3\n        /* \"#utility.yul\":6713:6733   */\n      tag_50\n      jump\t// in\n    tag_133:\n        /* \"#utility.yul\":6708:6733   */\n      swap2\n      pop\n        /* \"#utility.yul\":6747:6767   */\n      tag_134\n        /* \"#utility.yul\":6765:6766   */\n      dup4\n        /* \"#utility.yul\":6747:6767   */\n      tag_50\n      jump\t// in\n    tag_134:\n        /* \"#utility.yul\":6742:6767   */\n      swap3\n      pop\n        /* \"#utility.yul\":6790:6791   */\n      dup3\n        /* \"#utility.yul\":6787:6788   */\n      dup3\n        /* \"#utility.yul\":6783:6792   */\n      add\n        /* \"#utility.yul\":6776:6792   */\n      swap1\n      pop\n        /* \"#utility.yul\":6811:6814   */\n      dup1\n        /* \"#utility.yul\":6808:6809   */\n      dup3\n        /* \"#utility.yul\":6805:6815   */\n      gt\n        /* \"#utility.yul\":6802:6838   */\n      iszero\n      tag_135\n      jumpi\n        /* \"#utility.yul\":6818:6836   */\n      tag_136\n      tag_62\n      jump\t// in\n    tag_136:\n        /* \"#utility.yul\":6802:6838   */\n    tag_135:\n        /* \"#utility.yul\":6654:6845   */\n      swap3\n      swap2\n      pop\n      pop\n      jump\t// out\n        /* \"#utility.yul\":6851:7073   */\n    tag_41:\n        /* \"#utility.yul\":6944:6948   */\n      0x00\n        /* \"#utility.yul\":6982:6984   */\n      0x20\n        /* \"#utility.yul\":6971:6980   */\n      dup3\n        /* \"#utility.yul\":6967:6985   */\n      add\n        /* \"#utility.yul\":6959:6985   */\n      swap1\n      pop\n        /* \"#utility.yul\":6995:7066   */\n      tag_138\n        /* \"#utility.yul\":7063:7064   */\n      0x00\n        /* \"#utility.yul\":7052:7061   */\n      dup4\n        /* \"#utility.yul\":7048:7065   */\n      add\n        /* \"#utility.yul\":7039:7045   */\n      dup5\n        /* \"#utility.yul\":6995:7066   */\n      tag_58\n      jump\t// in\n    tag_138:\n        /* \"#utility.yul\":6851:7073   */\n      swap3\n      swap2\n      pop\n      pop\n      jump\t// out\n\n    auxdata: 0xa264697066735822122008bd1a6ec369081fa4d70ef772ebd43528d2072d51dbff3b012a60c6fb4de19664736f6c63430008160033\n}\n",
				"bytecode": {
					"linkReferences": {},
					"object": "608060405234801561000f575f80fd5b50335f806101000a81548173ffffffffffffffffffffffffffffffffffffffff021916908373ffffffffffffffffffffffffffffffffffffffff1602179055506109308061005c5f395ff3fe608060405234801561000f575f80fd5b506004361061003f575f3560e01c806352f5973a146100435780638da5cb5b1461005f5780639991a2021461007d575b5f80fd5b61005d600480360381019061005891906105a7565b610099565b005b6100676101bc565b60405161007491906105f4565b60405180910390f35b61009760048036038101906100929190610640565b6101df565b005b5f8054906101000a900473ffffffffffffffffffffffffffffffffffffffff1673ffffffffffffffffffffffffffffffffffffffff163373ffffffffffffffffffffffffffffffffffffffff1614610126576040517f08c379a000000000000000000000000000000000000000000000000000000000815260040161011d90610724565b60405180910390fd5b6001805f8473ffffffffffffffffffffffffffffffffffffffff1673ffffffffffffffffffffffffffffffffffffffff1681526020019081526020015f206001015f8373ffffffffffffffffffffffffffffffffffffffff1673ffffffffffffffffffffffffffffffffffffffff1681526020019081526020015f205f6101000a81548160ff0219169083151502179055505050565b5f8054906101000a900473ffffffffffffffffffffffffffffffffffffffff1681565b5f8054906101000a900473ffffffffffffffffffffffffffffffffffffffff1673ffffffffffffffffffffffffffffffffffffffff163373ffffffffffffffffffffffffffffffffffffffff161461026c576040517f08c379a000000000000000000000000000000000000000000000000000000000815260040161026390610724565b60405180910390fd5b8060015f8673ffffffffffffffffffffffffffffffffffffffff1673ffffffffffffffffffffffffffffffffffffffff1681526020019081526020015f205f015f8473ffffffffffffffffffffffffffffffffffffffff1673ffffffffffffffffffffffffffffffffffffffff1681526020019081526020015f20541015610329576040517f08c379a00000000000000000000000000000000000000000000000000000000081526004016103209061078c565b60405180910390fd5b8173ffffffffffffffffffffffffffffffffffffffff166323b872dd8585846040518463ffffffff1660e01b8152600401610366939291906107b9565b6020604051808303815f875af1158015610382573d5f803e3d5ffd5b505050506040513d601f19601f820116820180604052508101906103a69190610823565b508060015f8673ffffffffffffffffffffffffffffffffffffffff1673ffffffffffffffffffffffffffffffffffffffff1681526020019081526020015f205f015f8473ffffffffffffffffffffffffffffffffffffffff1673ffffffffffffffffffffffffffffffffffffffff1681526020019081526020015f205f828254610430919061087b565b925050819055508060015f8573ffffffffffffffffffffffffffffffffffffffff1673ffffffffffffffffffffffffffffffffffffffff1681526020019081526020015f205f015f8473ffffffffffffffffffffffffffffffffffffffff1673ffffffffffffffffffffffffffffffffffffffff1681526020019081526020015f205f8282546104c091906108ae565b925050819055508173ffffffffffffffffffffffffffffffffffffffff168373ffffffffffffffffffffffffffffffffffffffff168573ffffffffffffffffffffffffffffffffffffffff167f25137ec1c481240ec1a0e55c3c8c5f5e3467c1a66454f84fb39c963378cc0e778460405161053b91906108e1565b60405180910390a450505050565b5f80fd5b5f73ffffffffffffffffffffffffffffffffffffffff82169050919050565b5f6105768261054d565b9050919050565b6105868161056c565b8114610590575f80fd5b50565b5f813590506105a18161057d565b92915050565b5f80604083850312156105bd576105bc610549565b5b5f6105ca85828601610593565b92505060206105db85828601610593565b9150509250929050565b6105ee8161056c565b82525050565b5f6020820190506106075f8301846105e5565b92915050565b5f819050919050565b61061f8161060d565b8114610629575f80fd5b50565b5f8135905061063a81610616565b92915050565b5f805f806080858703121561065857610657610549565b5b5f61066587828801610593565b945050602061067687828801610593565b935050604061068787828801610593565b92505060606106988782880161062c565b91505092959194509250565b5f82825260208201905092915050565b7f4f6e6c792074686520636f6e7472616374206f776e65722063616e2063616c6c5f8201527f20746869732066756e6374696f6e000000000000000000000000000000000000602082015250565b5f61070e602e836106a4565b9150610719826106b4565b604082019050919050565b5f6020820190508181035f83015261073b81610702565b9050919050565b7f496e73756666696369656e742062616c616e63650000000000000000000000005f82015250565b5f6107766014836106a4565b915061078182610742565b602082019050919050565b5f6020820190508181035f8301526107a38161076a565b9050919050565b6107b38161060d565b82525050565b5f6060820190506107cc5f8301866105e5565b6107d960208301856105e5565b6107e660408301846107aa565b949350505050565b5f8115159050919050565b610802816107ee565b811461080c575f80fd5b50565b5f8151905061081d816107f9565b92915050565b5f6020828403121561083857610837610549565b5b5f6108458482850161080f565b91505092915050565b7f4e487b71000000000000000000000000000000000000000000000000000000005f52601160045260245ffd5b5f6108858261060d565b91506108908361060d565b92508282039050818111156108a8576108a761084e565b5b92915050565b5f6108b88261060d565b91506108c38361060d565b92508282019050808211156108db576108da61084e565b5b92915050565b5f6020820190506108f45f8301846107aa565b9291505056fea264697066735822122008bd1a6ec369081fa4d70ef772ebd43528d2072d51dbff3b012a60c6fb4de19664736f6c63430008160033",
					"opcodes": "PUSH1 0x80 PUSH1 0x40 MSTORE CALLVALUE DUP1 ISZERO PUSH2 0xF JUMPI PUSH0 DUP1 REVERT JUMPDEST POP CALLER PUSH0 DUP1 PUSH2 0x100 EXP DUP2 SLOAD DUP2 PUSH20 0xFFFFFFFFFFFFFFFFFFFFFFFFFFFFFFFFFFFFFFFF MUL NOT AND SWAP1 DUP4 PUSH20 0xFFFFFFFFFFFFFFFFFFFFFFFFFFFFFFFFFFFFFFFF AND MUL OR SWAP1 SSTORE POP PUSH2 0x930 DUP1 PUSH2 0x5C PUSH0 CODECOPY PUSH0 RETURN INVALID PUSH1 0x80 PUSH1 0x40 MSTORE CALLVALUE DUP1 ISZERO PUSH2 0xF JUMPI PUSH0 DUP1 REVERT JUMPDEST POP PUSH1 0x4 CALLDATASIZE LT PUSH2 0x3F JUMPI PUSH0 CALLDATALOAD PUSH1 0xE0 SHR DUP1 PUSH4 0x52F5973A EQ PUSH2 0x43 JUMPI DUP1 PUSH4 0x8DA5CB5B EQ PUSH2 0x5F JUMPI DUP1 PUSH4 0x9991A202 EQ PUSH2 0x7D JUMPI JUMPDEST PUSH0 DUP1 REVERT JUMPDEST PUSH2 0x5D PUSH1 0x4 DUP1 CALLDATASIZE SUB DUP2 ADD SWAP1 PUSH2 0x58 SWAP2 SWAP1 PUSH2 0x5A7 JUMP JUMPDEST PUSH2 0x99 JUMP JUMPDEST STOP JUMPDEST PUSH2 0x67 PUSH2 0x1BC JUMP JUMPDEST PUSH1 0x40 MLOAD PUSH2 0x74 SWAP2 SWAP1 PUSH2 0x5F4 JUMP JUMPDEST PUSH1 0x40 MLOAD DUP1 SWAP2 SUB SWAP1 RETURN JUMPDEST PUSH2 0x97 PUSH1 0x4 DUP1 CALLDATASIZE SUB DUP2 ADD SWAP1 PUSH2 0x92 SWAP2 SWAP1 PUSH2 0x640 JUMP JUMPDEST PUSH2 0x1DF JUMP JUMPDEST STOP JUMPDEST PUSH0 DUP1 SLOAD SWAP1 PUSH2 0x100 EXP SWAP1 DIV PUSH20 0xFFFFFFFFFFFFFFFFFFFFFFFFFFFFFFFFFFFFFFFF AND PUSH20 0xFFFFFFFFFFFFFFFFFFFFFFFFFFFFFFFFFFFFFFFF AND CALLER PUSH20 0xFFFFFFFFFFFFFFFFFFFFFFFFFFFFFFFFFFFFFFFF AND EQ PUSH2 0x126 JUMPI PUSH1 0x40 MLOAD PUSH32 0x8C379A000000000000000000000000000000000000000000000000000000000 DUP2 MSTORE PUSH1 0x4 ADD PUSH2 0x11D SWAP1 PUSH2 0x724 JUMP JUMPDEST PUSH1 0x40 MLOAD DUP1 SWAP2 SUB SWAP1 REVERT JUMPDEST PUSH1 0x1 DUP1 PUSH0 DUP5 PUSH20 0xFFFFFFFFFFFFFFFFFFFFFFFFFFFFFFFFFFFFFFFF AND PUSH20 0xFFFFFFFFFFFFFFFFFFFFFFFFFFFFFFFFFFFFFFFF AND DUP2 MSTORE PUSH1 0x20 ADD SWAP1 DUP2 MSTORE PUSH1 0x20 ADD PUSH0 KECCAK256 PUSH1 0x1 ADD PUSH0 DUP4 PUSH20 0xFFFFFFFFFFFFFFFFFFFFFFFFFFFFFFFFFFFFFFFF AND PUSH20 0xFFFFFFFFFFFFFFFFFFFFFFFFFFFFFFFFFFFFFFFF AND DUP2 MSTORE PUSH1 0x20 ADD SWAP1 DUP2 MSTORE PUSH1 0x20 ADD PUSH0 KECCAK256 PUSH0 PUSH2 0x100 EXP DUP2 SLOAD DUP2 PUSH1 0xFF MUL NOT AND SWAP1 DUP4 ISZERO ISZERO MUL OR SWAP1 SSTORE POP POP POP JUMP JUMPDEST PUSH0 DUP1 SLOAD SWAP1 PUSH2 0x100 EXP SWAP1 DIV PUSH20 0xFFFFFFFFFFFFFFFFFFFFFFFFFFFFFFFFFFFFFFFF AND DUP2 JUMP JUMPDEST PUSH0 DUP1 SLOAD SWAP1 PUSH2 0x100 EXP SWAP1 DIV PUSH20 0xFFFFFFFFFFFFFFFFFFFFFFFFFFFFFFFFFFFFFFFF AND PUSH20 0xFFFFFFFFFFFFFFFFFFFFFFFFFFFFFFFFFFFFFFFF AND CALLER PUSH20 0xFFFFFFFFFFFFFFFFFFFFFFFFFFFFFFFFFFFFFFFF AND EQ PUSH2 0x26C JUMPI PUSH1 0x40 MLOAD PUSH32 0x8C379A000000000000000000000000000000000000000000000000000000000 DUP2 MSTORE PUSH1 0x4 ADD PUSH2 0x263 SWAP1 PUSH2 0x724 JUMP JUMPDEST PUSH1 0x40 MLOAD DUP1 SWAP2 SUB SWAP1 REVERT JUMPDEST DUP1 PUSH1 0x1 PUSH0 DUP7 PUSH20 0xFFFFFFFFFFFFFFFFFFFFFFFFFFFFFFFFFFFFFFFF AND PUSH20 0xFFFFFFFFFFFFFFFFFFFFFFFFFFFFFFFFFFFFFFFF AND DUP2 MSTORE PUSH1 0x20 ADD SWAP1 DUP2 MSTORE PUSH1 0x20 ADD PUSH0 KECCAK256 PUSH0 ADD PUSH0 DUP5 PUSH20 0xFFFFFFFFFFFFFFFFFFFFFFFFFFFFFFFFFFFFFFFF AND PUSH20 0xFFFFFFFFFFFFFFFFFFFFFFFFFFFFFFFFFFFFFFFF AND DUP2 MSTORE PUSH1 0x20 ADD SWAP1 DUP2 MSTORE PUSH1 0x20 ADD PUSH0 KECCAK256 SLOAD LT ISZERO PUSH2 0x329 JUMPI PUSH1 0x40 MLOAD PUSH32 0x8C379A000000000000000000000000000000000000000000000000000000000 DUP2 MSTORE PUSH1 0x4 ADD PUSH2 0x320 SWAP1 PUSH2 0x78C JUMP JUMPDEST PUSH1 0x40 MLOAD DUP1 SWAP2 SUB SWAP1 REVERT JUMPDEST DUP2 PUSH20 0xFFFFFFFFFFFFFFFFFFFFFFFFFFFFFFFFFFFFFFFF AND PUSH4 0x23B872DD DUP6 DUP6 DUP5 PUSH1 0x40 MLOAD DUP5 PUSH4 0xFFFFFFFF AND PUSH1 0xE0 SHL DUP2 MSTORE PUSH1 0x4 ADD PUSH2 0x366 SWAP4 SWAP3 SWAP2 SWAP1 PUSH2 0x7B9 JUMP JUMPDEST PUSH1 0x20 PUSH1 0x40 MLOAD DUP1 DUP4 SUB DUP2 PUSH0 DUP8 GAS CALL ISZERO DUP1 ISZERO PUSH2 0x382 JUMPI RETURNDATASIZE PUSH0 DUP1 RETURNDATACOPY RETURNDATASIZE PUSH0 REVERT JUMPDEST POP POP POP POP PUSH1 0x40 MLOAD RETURNDATASIZE PUSH1 0x1F NOT PUSH1 0x1F DUP3 ADD AND DUP3 ADD DUP1 PUSH1 0x40 MSTORE POP DUP2 ADD SWAP1 PUSH2 0x3A6 SWAP2 SWAP1 PUSH2 0x823 JUMP JUMPDEST POP DUP1 PUSH1 0x1 PUSH0 DUP7 PUSH20 0xFFFFFFFFFFFFFFFFFFFFFFFFFFFFFFFFFFFFFFFF AND PUSH20 0xFFFFFFFFFFFFFFFFFFFFFFFFFFFFFFFFFFFFFFFF AND DUP2 MSTORE PUSH1 0x20 ADD SWAP1 DUP2 MSTORE PUSH1 0x20 ADD PUSH0 KECCAK256 PUSH0 ADD PUSH0 DUP5 PUSH20 0xFFFFFFFFFFFFFFFFFFFFFFFFFFFFFFFFFFFFFFFF AND PUSH20 0xFFFFFFFFFFFFFFFFFFFFFFFFFFFFFFFFFFFFFFFF AND DUP2 MSTORE PUSH1 0x20 ADD SWAP1 DUP2 MSTORE PUSH1 0x20 ADD PUSH0 KECCAK256 PUSH0 DUP3 DUP3 SLOAD PUSH2 0x430 SWAP2 SWAP1 PUSH2 0x87B JUMP JUMPDEST SWAP3 POP POP DUP2 SWAP1 SSTORE POP DUP1 PUSH1 0x1 PUSH0 DUP6 PUSH20 0xFFFFFFFFFFFFFFFFFFFFFFFFFFFFFFFFFFFFFFFF AND PUSH20 0xFFFFFFFFFFFFFFFFFFFFFFFFFFFFFFFFFFFFFFFF AND DUP2 MSTORE PUSH1 0x20 ADD SWAP1 DUP2 MSTORE PUSH1 0x20 ADD PUSH0 KECCAK256 PUSH0 ADD PUSH0 DUP5 PUSH20 0xFFFFFFFFFFFFFFFFFFFFFFFFFFFFFFFFFFFFFFFF AND PUSH20 0xFFFFFFFFFFFFFFFFFFFFFFFFFFFFFFFFFFFFFFFF AND DUP2 MSTORE PUSH1 0x20 ADD SWAP1 DUP2 MSTORE PUSH1 0x20 ADD PUSH0 KECCAK256 PUSH0 DUP3 DUP3 SLOAD PUSH2 0x4C0 SWAP2 SWAP1 PUSH2 0x8AE JUMP JUMPDEST SWAP3 POP POP DUP2 SWAP1 SSTORE POP DUP2 PUSH20 0xFFFFFFFFFFFFFFFFFFFFFFFFFFFFFFFFFFFFFFFF AND DUP4 PUSH20 0xFFFFFFFFFFFFFFFFFFFFFFFFFFFFFFFFFFFFFFFF AND DUP6 PUSH20 0xFFFFFFFFFFFFFFFFFFFFFFFFFFFFFFFFFFFFFFFF AND PUSH32 0x25137EC1C481240EC1A0E55C3C8C5F5E3467C1A66454F84FB39C963378CC0E77 DUP5 PUSH1 0x40 MLOAD PUSH2 0x53B SWAP2 SWAP1 PUSH2 0x8E1 JUMP JUMPDEST PUSH1 0x40 MLOAD DUP1 SWAP2 SUB SWAP1 LOG4 POP POP POP POP JUMP JUMPDEST PUSH0 DUP1 REVERT JUMPDEST PUSH0 PUSH20 0xFFFFFFFFFFFFFFFFFFFFFFFFFFFFFFFFFFFFFFFF DUP3 AND SWAP1 POP SWAP2 SWAP1 POP JUMP JUMPDEST PUSH0 PUSH2 0x576 DUP3 PUSH2 0x54D JUMP JUMPDEST SWAP1 POP SWAP2 SWAP1 POP JUMP JUMPDEST PUSH2 0x586 DUP2 PUSH2 0x56C JUMP JUMPDEST DUP2 EQ PUSH2 0x590 JUMPI PUSH0 DUP1 REVERT JUMPDEST POP JUMP JUMPDEST PUSH0 DUP2 CALLDATALOAD SWAP1 POP PUSH2 0x5A1 DUP2 PUSH2 0x57D JUMP JUMPDEST SWAP3 SWAP2 POP POP JUMP JUMPDEST PUSH0 DUP1 PUSH1 0x40 DUP4 DUP6 SUB SLT ISZERO PUSH2 0x5BD JUMPI PUSH2 0x5BC PUSH2 0x549 JUMP JUMPDEST JUMPDEST PUSH0 PUSH2 0x5CA DUP6 DUP3 DUP7 ADD PUSH2 0x593 JUMP JUMPDEST SWAP3 POP POP PUSH1 0x20 PUSH2 0x5DB DUP6 DUP3 DUP7 ADD PUSH2 0x593 JUMP JUMPDEST SWAP2 POP POP SWAP3 POP SWAP3 SWAP1 POP JUMP JUMPDEST PUSH2 0x5EE DUP2 PUSH2 0x56C JUMP JUMPDEST DUP3 MSTORE POP POP JUMP JUMPDEST PUSH0 PUSH1 0x20 DUP3 ADD SWAP1 POP PUSH2 0x607 PUSH0 DUP4 ADD DUP5 PUSH2 0x5E5 JUMP JUMPDEST SWAP3 SWAP2 POP POP JUMP JUMPDEST PUSH0 DUP2 SWAP1 POP SWAP2 SWAP1 POP JUMP JUMPDEST PUSH2 0x61F DUP2 PUSH2 0x60D JUMP JUMPDEST DUP2 EQ PUSH2 0x629 JUMPI PUSH0 DUP1 REVERT JUMPDEST POP JUMP JUMPDEST PUSH0 DUP2 CALLDATALOAD SWAP1 POP PUSH2 0x63A DUP2 PUSH2 0x616 JUMP JUMPDEST SWAP3 SWAP2 POP POP JUMP JUMPDEST PUSH0 DUP1 PUSH0 DUP1 PUSH1 0x80 DUP6 DUP8 SUB SLT ISZERO PUSH2 0x658 JUMPI PUSH2 0x657 PUSH2 0x549 JUMP JUMPDEST JUMPDEST PUSH0 PUSH2 0x665 DUP8 DUP3 DUP9 ADD PUSH2 0x593 JUMP JUMPDEST SWAP5 POP POP PUSH1 0x20 PUSH2 0x676 DUP8 DUP3 DUP9 ADD PUSH2 0x593 JUMP JUMPDEST SWAP4 POP POP PUSH1 0x40 PUSH2 0x687 DUP8 DUP3 DUP9 ADD PUSH2 0x593 JUMP JUMPDEST SWAP3 POP POP PUSH1 0x60 PUSH2 0x698 DUP8 DUP3 DUP9 ADD PUSH2 0x62C JUMP JUMPDEST SWAP2 POP POP SWAP3 SWAP6 SWAP2 SWAP5 POP SWAP3 POP JUMP JUMPDEST PUSH0 DUP3 DUP3 MSTORE PUSH1 0x20 DUP3 ADD SWAP1 POP SWAP3 SWAP2 POP POP JUMP JUMPDEST PUSH32 0x4F6E6C792074686520636F6E7472616374206F776E65722063616E2063616C6C PUSH0 DUP3 ADD MSTORE PUSH32 0x20746869732066756E6374696F6E000000000000000000000000000000000000 PUSH1 0x20 DUP3 ADD MSTORE POP JUMP JUMPDEST PUSH0 PUSH2 0x70E PUSH1 0x2E DUP4 PUSH2 0x6A4 JUMP JUMPDEST SWAP2 POP PUSH2 0x719 DUP3 PUSH2 0x6B4 JUMP JUMPDEST PUSH1 0x40 DUP3 ADD SWAP1 POP SWAP2 SWAP1 POP JUMP JUMPDEST PUSH0 PUSH1 0x20 DUP3 ADD SWAP1 POP DUP2 DUP2 SUB PUSH0 DUP4 ADD MSTORE PUSH2 0x73B DUP2 PUSH2 0x702 JUMP JUMPDEST SWAP1 POP SWAP2 SWAP1 POP JUMP JUMPDEST PUSH32 0x496E73756666696369656E742062616C616E6365000000000000000000000000 PUSH0 DUP3 ADD MSTORE POP JUMP JUMPDEST PUSH0 PUSH2 0x776 PUSH1 0x14 DUP4 PUSH2 0x6A4 JUMP JUMPDEST SWAP2 POP PUSH2 0x781 DUP3 PUSH2 0x742 JUMP JUMPDEST PUSH1 0x20 DUP3 ADD SWAP1 POP SWAP2 SWAP1 POP JUMP JUMPDEST PUSH0 PUSH1 0x20 DUP3 ADD SWAP1 POP DUP2 DUP2 SUB PUSH0 DUP4 ADD MSTORE PUSH2 0x7A3 DUP2 PUSH2 0x76A JUMP JUMPDEST SWAP1 POP SWAP2 SWAP1 POP JUMP JUMPDEST PUSH2 0x7B3 DUP2 PUSH2 0x60D JUMP JUMPDEST DUP3 MSTORE POP POP JUMP JUMPDEST PUSH0 PUSH1 0x60 DUP3 ADD SWAP1 POP PUSH2 0x7CC PUSH0 DUP4 ADD DUP7 PUSH2 0x5E5 JUMP JUMPDEST PUSH2 0x7D9 PUSH1 0x20 DUP4 ADD DUP6 PUSH2 0x5E5 JUMP JUMPDEST PUSH2 0x7E6 PUSH1 0x40 DUP4 ADD DUP5 PUSH2 0x7AA JUMP JUMPDEST SWAP5 SWAP4 POP POP POP POP JUMP JUMPDEST PUSH0 DUP2 ISZERO ISZERO SWAP1 POP SWAP2 SWAP1 POP JUMP JUMPDEST PUSH2 0x802 DUP2 PUSH2 0x7EE JUMP JUMPDEST DUP2 EQ PUSH2 0x80C JUMPI PUSH0 DUP1 REVERT JUMPDEST POP JUMP JUMPDEST PUSH0 DUP2 MLOAD SWAP1 POP PUSH2 0x81D DUP2 PUSH2 0x7F9 JUMP JUMPDEST SWAP3 SWAP2 POP POP JUMP JUMPDEST PUSH0 PUSH1 0x20 DUP3 DUP5 SUB SLT ISZERO PUSH2 0x838 JUMPI PUSH2 0x837 PUSH2 0x549 JUMP JUMPDEST JUMPDEST PUSH0 PUSH2 0x845 DUP5 DUP3 DUP6 ADD PUSH2 0x80F JUMP JUMPDEST SWAP2 POP POP SWAP3 SWAP2 POP POP JUMP JUMPDEST PUSH32 0x4E487B7100000000000000000000000000000000000000000000000000000000 PUSH0 MSTORE PUSH1 0x11 PUSH1 0x4 MSTORE PUSH1 0x24 PUSH0 REVERT JUMPDEST PUSH0 PUSH2 0x885 DUP3 PUSH2 0x60D JUMP JUMPDEST SWAP2 POP PUSH2 0x890 DUP4 PUSH2 0x60D JUMP JUMPDEST SWAP3 POP DUP3 DUP3 SUB SWAP1 POP DUP2 DUP2 GT ISZERO PUSH2 0x8A8 JUMPI PUSH2 0x8A7 PUSH2 0x84E JUMP JUMPDEST JUMPDEST SWAP3 SWAP2 POP POP JUMP JUMPDEST PUSH0 PUSH2 0x8B8 DUP3 PUSH2 0x60D JUMP JUMPDEST SWAP2 POP PUSH2 0x8C3 DUP4 PUSH2 0x60D JUMP JUMPDEST SWAP3 POP DUP3 DUP3 ADD SWAP1 POP DUP1 DUP3 GT ISZERO PUSH2 0x8DB JUMPI PUSH2 0x8DA PUSH2 0x84E JUMP JUMPDEST JUMPDEST SWAP3 SWAP2 POP POP JUMP JUMPDEST PUSH0 PUSH1 0x20 DUP3 ADD SWAP1 POP PUSH2 0x8F4 PUSH0 DUP4 ADD DUP5 PUSH2 0x7AA JUMP JUMPDEST SWAP3 SWAP2 POP POP JUMP INVALID LOG2 PUSH5 0x6970667358 0x22 SLT KECCAK256 ADDMOD 0xBD BYTE PUSH15 0xC369081FA4D70EF772EBD43528D207 0x2D MLOAD 0xDB SELFDESTRUCT EXTCODESIZE ADD 0x2A PUSH1 0xC6 0xFB 0x4D 0xE1 SWAP7 PUSH5 0x736F6C6343 STOP ADDMOD AND STOP CALLER "
				},
				"gasEstimates": {
					"creation": {
						"codeDepositCost": "470400",
						"executionCost": "24768",
						"totalCost": "495168"
					},
					"external": {
						"owner()": "2505",
						"setSupportedChain(address,address)": "infinite",
						"transferAsset(address,address,address,uint256)": "infinite"
					}
				},
				"methodIdentifiers": {
					"owner()": "8da5cb5b",
					"setSupportedChain(address,address)": "52f5973a",
					"transferAsset(address,address,address,uint256)": "9991a202"
				}
			},
			"storageLayout": {
				"storage": [
					{
						"astId": 91,
						"contract": "contracts/CrossChainAssetsManagement.sol:CrossChainAssetManagement",
						"label": "owner",
						"offset": 0,
						"slot": "0",
						"type": "t_address"
					},
					{
						"astId": 96,
						"contract": "contracts/CrossChainAssetsManagement.sol:CrossChainAssetManagement",
						"label": "userAssets",
						"offset": 0,
						"slot": "1",
						"type": "t_mapping(t_address,t_struct(UserAssets)89_storage)"
					}
				],
				"types": {
					"t_address": {
						"encoding": "inplace",
						"label": "address",
						"numberOfBytes": "20"
					},
					"t_bool": {
						"encoding": "inplace",
						"label": "bool",
						"numberOfBytes": "1"
					},
					"t_mapping(t_address,t_bool)": {
						"encoding": "mapping",
						"key": "t_address",
						"label": "mapping(address => bool)",
						"numberOfBytes": "32",
						"value": "t_bool"
					},
					"t_mapping(t_address,t_struct(UserAssets)89_storage)": {
						"encoding": "mapping",
						"key": "t_address",
						"label": "mapping(address => struct CrossChainAssetManagement.UserAssets)",
						"numberOfBytes": "32",
						"value": "t_struct(UserAssets)89_storage"
					},
					"t_mapping(t_address,t_uint256)": {
						"encoding": "mapping",
						"key": "t_address",
						"label": "mapping(address => uint256)",
						"numberOfBytes": "32",
						"value": "t_uint256"
					},
					"t_struct(UserAssets)89_storage": {
						"encoding": "inplace",
						"label": "struct CrossChainAssetManagement.UserAssets",
						"members": [
							{
								"astId": 84,
								"contract": "contracts/CrossChainAssetsManagement.sol:CrossChainAssetManagement",
								"label": "balances",
								"offset": 0,
								"slot": "0",
								"type": "t_mapping(t_address,t_uint256)"
							},
							{
								"astId": 88,
								"contract": "contracts/CrossChainAssetsManagement.sol:CrossChainAssetManagement",
								"label": "supportedChains",
								"offset": 0,
								"slot": "1",
								"type": "t_mapping(t_address,t_bool)"
							}
						],
						"numberOfBytes": "64"
					},
					"t_uint256": {
						"encoding": "inplace",
						"label": "uint256",
						"numberOfBytes": "32"
					}
				}
			},
			"userdoc": {
				"kind": "user",
				"methods": {},
				"version": 1
			}
		}
	}
}