{
	"contracts/AssetManagement.sol": {
		"AssetManagement": {
			"abi": [
				{
					"anonymous": false,
					"inputs": [
						{
							"indexed": true,
							"internalType": "address",
							"name": "user",
							"type": "address"
						},
						{
							"indexed": true,
							"internalType": "uint256",
							"name": "assetId",
							"type": "uint256"
						},
						{
							"indexed": false,
							"internalType": "string",
							"name": "assetName",
							"type": "string"
						}
					],
					"name": "AssetAdded",
					"type": "event"
				},
				{
					"inputs": [
						{
							"internalType": "string",
							"name": "_assetName",
							"type": "string"
						}
					],
					"name": "addAsset",
					"outputs": [],
					"stateMutability": "nonpayable",
					"type": "function"
				},
				{
					"inputs": [],
					"name": "getUserAssets",
					"outputs": [
						{
							"components": [
								{
									"internalType": "uint256",
									"name": "id",
									"type": "uint256"
								},
								{
									"internalType": "string",
									"name": "name",
									"type": "string"
								}
							],
							"internalType": "struct AssetManagement.Asset[]",
							"name": "",
							"type": "tuple[]"
						}
					],
					"stateMutability": "view",
					"type": "function"
				}
			],
			"devdoc": {
				"kind": "dev",
				"methods": {},
				"version": 1
			},
			"evm": {
				"assembly": "    /* \"contracts/AssetManagement.sol\":60:975  contract AssetManagement {... */\n  mstore(0x40, 0x80)\n  callvalue\n  dup1\n  iszero\n  tag_1\n  jumpi\n  0x00\n  dup1\n  revert\ntag_1:\n  pop\n  dataSize(sub_0)\n  dup1\n  dataOffset(sub_0)\n  0x00\n  codecopy\n  0x00\n  return\nstop\n\nsub_0: assembly {\n        /* \"contracts/AssetManagement.sol\":60:975  contract AssetManagement {... */\n      mstore(0x40, 0x80)\n      callvalue\n      dup1\n      iszero\n      tag_1\n      jumpi\n      0x00\n      dup1\n      revert\n    tag_1:\n      pop\n      jumpi(tag_2, lt(calldatasize, 0x04))\n      shr(0xe0, calldataload(0x00))\n      dup1\n      0x1b26708c\n      eq\n      tag_3\n      jumpi\n      dup1\n      0xa7c6b52e\n      eq\n      tag_4\n      jumpi\n    tag_2:\n      0x00\n      dup1\n      revert\n        /* \"contracts/AssetManagement.sol\":860:972  function getUserAssets() external view returns (Asset[] memory) {... */\n    tag_3:\n      tag_5\n      tag_6\n      jump\t// in\n    tag_5:\n      mload(0x40)\n      tag_7\n      swap2\n      swap1\n      tag_8\n      jump\t// in\n    tag_7:\n      mload(0x40)\n      dup1\n      swap2\n      sub\n      swap1\n      return\n        /* \"contracts/AssetManagement.sol\":427:800  function addAsset(string memory _assetName) external {... */\n    tag_4:\n      tag_9\n      0x04\n      dup1\n      calldatasize\n      sub\n      dup2\n      add\n      swap1\n      tag_10\n      swap2\n      swap1\n      tag_11\n      jump\t// in\n    tag_10:\n      tag_12\n      jump\t// in\n    tag_9:\n      stop\n        /* \"contracts/AssetManagement.sol\":860:972  function getUserAssets() external view returns (Asset[] memory) {... */\n    tag_6:\n        /* \"contracts/AssetManagement.sol\":908:922  Asset[] memory */\n      0x60\n        /* \"contracts/AssetManagement.sol\":942:952  userAssets */\n      0x00\n        /* \"contracts/AssetManagement.sol\":942:964  userAssets[msg.sender] */\n      dup1\n        /* \"contracts/AssetManagement.sol\":953:963  msg.sender */\n      caller\n        /* \"contracts/AssetManagement.sol\":942:964  userAssets[msg.sender] */\n      0xffffffffffffffffffffffffffffffffffffffff\n      and\n      0xffffffffffffffffffffffffffffffffffffffff\n      and\n      dup2\n      mstore\n      0x20\n      add\n      swap1\n      dup2\n      mstore\n      0x20\n      add\n      0x00\n      keccak256\n        /* \"contracts/AssetManagement.sol\":935:964  return userAssets[msg.sender] */\n      dup1\n      sload\n      dup1\n      0x20\n      mul\n      0x20\n      add\n      mload(0x40)\n      swap1\n      dup2\n      add\n      0x40\n      mstore\n      dup1\n      swap3\n      swap2\n      swap1\n      dup2\n      dup2\n      mstore\n      0x20\n      add\n      0x00\n      swap1\n    tag_14:\n      dup3\n      dup3\n      lt\n      iszero\n      tag_15\n      jumpi\n      dup4\n      dup3\n      swap1\n      0x00\n      mstore\n      keccak256(0x00, 0x20)\n      swap1\n      0x02\n      mul\n      add\n      mload(0x40)\n      dup1\n      0x40\n      add\n      0x40\n      mstore\n      swap1\n      dup2\n      0x00\n      dup3\n      add\n      sload\n      dup2\n      mstore\n      0x20\n      add\n      0x01\n      dup3\n      add\n      dup1\n      sload\n      tag_17\n      swap1\n      tag_18\n      jump\t// in\n    tag_17:\n      dup1\n      0x1f\n      add\n      0x20\n      dup1\n      swap2\n      div\n      mul\n      0x20\n      add\n      mload(0x40)\n      swap1\n      dup2\n      add\n      0x40\n      mstore\n      dup1\n      swap3\n      swap2\n      swap1\n      dup2\n      dup2\n      mstore\n      0x20\n      add\n      dup3\n      dup1\n      sload\n      tag_19\n      swap1\n      tag_18\n      jump\t// in\n    tag_19:\n      dup1\n      iszero\n      tag_20\n      jumpi\n      dup1\n      0x1f\n      lt\n      tag_21\n      jumpi\n      0x0100\n      dup1\n      dup4\n      sload\n      div\n      mul\n      dup4\n      mstore\n      swap2\n      0x20\n      add\n      swap2\n      jump(tag_20)\n    tag_21:\n      dup3\n      add\n      swap2\n      swap1\n      0x00\n      mstore\n      keccak256(0x00, 0x20)\n      swap1\n    tag_22:\n      dup2\n      sload\n      dup2\n      mstore\n      swap1\n      0x01\n      add\n      swap1\n      0x20\n      add\n      dup1\n      dup4\n      gt\n      tag_22\n      jumpi\n      dup3\n      swap1\n      sub\n      0x1f\n      and\n      dup3\n      add\n      swap2\n    tag_20:\n      pop\n      pop\n      pop\n      pop\n      pop\n      dup2\n      mstore\n      pop\n      pop\n      dup2\n      mstore\n      0x20\n      add\n      swap1\n      0x01\n      add\n      swap1\n      jump(tag_14)\n    tag_15:\n      pop\n      pop\n      pop\n      pop\n      swap1\n      pop\n        /* \"contracts/AssetManagement.sol\":860:972  function getUserAssets() external view returns (Asset[] memory) {... */\n      swap1\n      jump\t// out\n        /* \"contracts/AssetManagement.sol\":427:800  function addAsset(string memory _assetName) external {... */\n    tag_12:\n        /* \"contracts/AssetManagement.sol\":491:506  uint256 assetId */\n      0x00\n        /* \"contracts/AssetManagement.sol\":541:542  1 */\n      0x01\n        /* \"contracts/AssetManagement.sol\":509:519  userAssets */\n      0x00\n        /* \"contracts/AssetManagement.sol\":509:531  userAssets[msg.sender] */\n      dup1\n        /* \"contracts/AssetManagement.sol\":520:530  msg.sender */\n      caller\n        /* \"contracts/AssetManagement.sol\":509:531  userAssets[msg.sender] */\n      0xffffffffffffffffffffffffffffffffffffffff\n      and\n      0xffffffffffffffffffffffffffffffffffffffff\n      and\n      dup2\n      mstore\n      0x20\n      add\n      swap1\n      dup2\n      mstore\n      0x20\n      add\n      0x00\n      keccak256\n        /* \"contracts/AssetManagement.sol\":509:538  userAssets[msg.sender].length */\n      dup1\n      sload\n      swap1\n      pop\n        /* \"contracts/AssetManagement.sol\":509:542  userAssets[msg.sender].length + 1 */\n      tag_24\n      swap2\n      swap1\n      tag_25\n      jump\t// in\n    tag_24:\n        /* \"contracts/AssetManagement.sol\":491:542  uint256 assetId = userAssets[msg.sender].length + 1 */\n      swap1\n      pop\n        /* \"contracts/AssetManagement.sol\":555:576  Asset memory newAsset */\n      0x00\n        /* \"contracts/AssetManagement.sol\":579:654  Asset({... */\n      mload(0x40)\n      dup1\n      0x40\n      add\n      0x40\n      mstore\n      dup1\n        /* \"contracts/AssetManagement.sol\":604:611  assetId */\n      dup4\n        /* \"contracts/AssetManagement.sol\":579:654  Asset({... */\n      dup2\n      mstore\n      0x20\n      add\n        /* \"contracts/AssetManagement.sol\":632:642  _assetName */\n      dup5\n        /* \"contracts/AssetManagement.sol\":579:654  Asset({... */\n      dup2\n      mstore\n      pop\n        /* \"contracts/AssetManagement.sol\":555:654  Asset memory newAsset = Asset({... */\n      swap1\n      pop\n        /* \"contracts/AssetManagement.sol\":667:677  userAssets */\n      0x00\n        /* \"contracts/AssetManagement.sol\":667:689  userAssets[msg.sender] */\n      dup1\n        /* \"contracts/AssetManagement.sol\":678:688  msg.sender */\n      caller\n        /* \"contracts/AssetManagement.sol\":667:689  userAssets[msg.sender] */\n      0xffffffffffffffffffffffffffffffffffffffff\n      and\n      0xffffffffffffffffffffffffffffffffffffffff\n      and\n      dup2\n      mstore\n      0x20\n      add\n      swap1\n      dup2\n      mstore\n      0x20\n      add\n      0x00\n      keccak256\n        /* \"contracts/AssetManagement.sol\":695:703  newAsset */\n      dup2\n        /* \"contracts/AssetManagement.sol\":667:704  userAssets[msg.sender].push(newAsset) */\n      swap1\n      dup1\n      0x01\n      dup2\n      sload\n      add\n      dup1\n      dup3\n      sstore\n      dup1\n      swap2\n      pop\n      pop\n      0x01\n      swap1\n      sub\n      swap1\n      0x00\n      mstore\n      keccak256(0x00, 0x20)\n      swap1\n      0x02\n      mul\n      add\n      0x00\n      swap1\n      swap2\n      swap1\n      swap2\n      swap1\n      swap2\n      pop\n      0x00\n      dup3\n      add\n      mload\n      dup2\n      0x00\n      add\n      sstore\n      0x20\n      dup3\n      add\n      mload\n      dup2\n      0x01\n      add\n      swap1\n      dup2\n      tag_27\n      swap2\n      swap1\n      tag_28\n      jump\t// in\n    tag_27:\n      pop\n      pop\n      pop\n        /* \"contracts/AssetManagement.sol\":772:779  assetId */\n      dup2\n        /* \"contracts/AssetManagement.sol\":760:770  msg.sender */\n      caller\n        /* \"contracts/AssetManagement.sol\":749:792  AssetAdded(msg.sender, assetId, _assetName) */\n      0xffffffffffffffffffffffffffffffffffffffff\n      and\n      0xd9943d316e03c76a0277683e5fa4ed2b175e6568c8d3a22d9f0b32092e584a28\n        /* \"contracts/AssetManagement.sol\":781:791  _assetName */\n      dup6\n        /* \"contracts/AssetManagement.sol\":749:792  AssetAdded(msg.sender, assetId, _assetName) */\n      mload(0x40)\n      tag_29\n      swap2\n      swap1\n      tag_30\n      jump\t// in\n    tag_29:\n      mload(0x40)\n      dup1\n      swap2\n      sub\n      swap1\n      log3\n        /* \"contracts/AssetManagement.sol\":480:800  {... */\n      pop\n      pop\n        /* \"contracts/AssetManagement.sol\":427:800  function addAsset(string memory _assetName) external {... */\n      pop\n      jump\t// out\n        /* \"#utility.yul\":7:141   */\n    tag_31:\n        /* \"#utility.yul\":94:100   */\n      0x00\n        /* \"#utility.yul\":128:133   */\n      dup2\n        /* \"#utility.yul\":122:134   */\n      mload\n        /* \"#utility.yul\":112:134   */\n      swap1\n      pop\n        /* \"#utility.yul\":7:141   */\n      swap2\n      swap1\n      pop\n      jump\t// out\n        /* \"#utility.yul\":147:351   */\n    tag_32:\n        /* \"#utility.yul\":266:277   */\n      0x00\n        /* \"#utility.yul\":300:306   */\n      dup3\n        /* \"#utility.yul\":295:298   */\n      dup3\n        /* \"#utility.yul\":288:307   */\n      mstore\n        /* \"#utility.yul\":340:344   */\n      0x20\n        /* \"#utility.yul\":335:338   */\n      dup3\n        /* \"#utility.yul\":331:345   */\n      add\n        /* \"#utility.yul\":316:345   */\n      swap1\n      pop\n        /* \"#utility.yul\":147:351   */\n      swap3\n      swap2\n      pop\n      pop\n      jump\t// out\n        /* \"#utility.yul\":357:509   */\n    tag_33:\n        /* \"#utility.yul\":444:448   */\n      0x00\n        /* \"#utility.yul\":467:470   */\n      dup2\n        /* \"#utility.yul\":459:470   */\n      swap1\n      pop\n        /* \"#utility.yul\":497:501   */\n      0x20\n        /* \"#utility.yul\":492:495   */\n      dup3\n        /* \"#utility.yul\":488:502   */\n      add\n        /* \"#utility.yul\":480:502   */\n      swap1\n      pop\n        /* \"#utility.yul\":357:509   */\n      swap2\n      swap1\n      pop\n      jump\t// out\n        /* \"#utility.yul\":515:592   */\n    tag_34:\n        /* \"#utility.yul\":552:559   */\n      0x00\n        /* \"#utility.yul\":581:586   */\n      dup2\n        /* \"#utility.yul\":570:586   */\n      swap1\n      pop\n        /* \"#utility.yul\":515:592   */\n      swap2\n      swap1\n      pop\n      jump\t// out\n        /* \"#utility.yul\":598:706   */\n    tag_35:\n        /* \"#utility.yul\":675:699   */\n      tag_82\n        /* \"#utility.yul\":693:698   */\n      dup2\n        /* \"#utility.yul\":675:699   */\n      tag_34\n      jump\t// in\n    tag_82:\n        /* \"#utility.yul\":670:673   */\n      dup3\n        /* \"#utility.yul\":663:700   */\n      mstore\n        /* \"#utility.yul\":598:706   */\n      pop\n      pop\n      jump\t// out\n        /* \"#utility.yul\":712:811   */\n    tag_36:\n        /* \"#utility.yul\":764:770   */\n      0x00\n        /* \"#utility.yul\":798:803   */\n      dup2\n        /* \"#utility.yul\":792:804   */\n      mload\n        /* \"#utility.yul\":782:804   */\n      swap1\n      pop\n        /* \"#utility.yul\":712:811   */\n      swap2\n      swap1\n      pop\n      jump\t// out\n        /* \"#utility.yul\":817:976   */\n    tag_37:\n        /* \"#utility.yul\":891:902   */\n      0x00\n        /* \"#utility.yul\":925:931   */\n      dup3\n        /* \"#utility.yul\":920:923   */\n      dup3\n        /* \"#utility.yul\":913:932   */\n      mstore\n        /* \"#utility.yul\":965:969   */\n      0x20\n        /* \"#utility.yul\":960:963   */\n      dup3\n        /* \"#utility.yul\":956:970   */\n      add\n        /* \"#utility.yul\":941:970   */\n      swap1\n      pop\n        /* \"#utility.yul\":817:976   */\n      swap3\n      swap2\n      pop\n      pop\n      jump\t// out\n        /* \"#utility.yul\":982:1228   */\n    tag_38:\n        /* \"#utility.yul\":1063:1064   */\n      0x00\n        /* \"#utility.yul\":1073:1186   */\n    tag_86:\n        /* \"#utility.yul\":1087:1093   */\n      dup4\n        /* \"#utility.yul\":1084:1085   */\n      dup2\n        /* \"#utility.yul\":1081:1094   */\n      lt\n        /* \"#utility.yul\":1073:1186   */\n      iszero\n      tag_88\n      jumpi\n        /* \"#utility.yul\":1172:1173   */\n      dup1\n        /* \"#utility.yul\":1167:1170   */\n      dup3\n        /* \"#utility.yul\":1163:1174   */\n      add\n        /* \"#utility.yul\":1157:1175   */\n      mload\n        /* \"#utility.yul\":1153:1154   */\n      dup2\n        /* \"#utility.yul\":1148:1151   */\n      dup5\n        /* \"#utility.yul\":1144:1155   */\n      add\n        /* \"#utility.yul\":1137:1176   */\n      mstore\n        /* \"#utility.yul\":1109:1111   */\n      0x20\n        /* \"#utility.yul\":1106:1107   */\n      dup2\n        /* \"#utility.yul\":1102:1112   */\n      add\n        /* \"#utility.yul\":1097:1112   */\n      swap1\n      pop\n        /* \"#utility.yul\":1073:1186   */\n      jump(tag_86)\n    tag_88:\n        /* \"#utility.yul\":1220:1221   */\n      0x00\n        /* \"#utility.yul\":1211:1217   */\n      dup5\n        /* \"#utility.yul\":1206:1209   */\n      dup5\n        /* \"#utility.yul\":1202:1218   */\n      add\n        /* \"#utility.yul\":1195:1222   */\n      mstore\n        /* \"#utility.yul\":1044:1228   */\n      pop\n        /* \"#utility.yul\":982:1228   */\n      pop\n      pop\n      pop\n      jump\t// out\n        /* \"#utility.yul\":1234:1336   */\n    tag_39:\n        /* \"#utility.yul\":1275:1281   */\n      0x00\n        /* \"#utility.yul\":1326:1328   */\n      0x1f\n        /* \"#utility.yul\":1322:1329   */\n      not\n        /* \"#utility.yul\":1317:1319   */\n      0x1f\n        /* \"#utility.yul\":1310:1315   */\n      dup4\n        /* \"#utility.yul\":1306:1320   */\n      add\n        /* \"#utility.yul\":1302:1330   */\n      and\n        /* \"#utility.yul\":1292:1330   */\n      swap1\n      pop\n        /* \"#utility.yul\":1234:1336   */\n      swap2\n      swap1\n      pop\n      jump\t// out\n        /* \"#utility.yul\":1342:1699   */\n    tag_40:\n        /* \"#utility.yul\":1420:1423   */\n      0x00\n        /* \"#utility.yul\":1448:1487   */\n      tag_91\n        /* \"#utility.yul\":1481:1486   */\n      dup3\n        /* \"#utility.yul\":1448:1487   */\n      tag_36\n      jump\t// in\n    tag_91:\n        /* \"#utility.yul\":1503:1564   */\n      tag_92\n        /* \"#utility.yul\":1557:1563   */\n      dup2\n        /* \"#utility.yul\":1552:1555   */\n      dup6\n        /* \"#utility.yul\":1503:1564   */\n      tag_37\n      jump\t// in\n    tag_92:\n        /* \"#utility.yul\":1496:1564   */\n      swap4\n      pop\n        /* \"#utility.yul\":1573:1638   */\n      tag_93\n        /* \"#utility.yul\":1631:1637   */\n      dup2\n        /* \"#utility.yul\":1626:1629   */\n      dup6\n        /* \"#utility.yul\":1619:1623   */\n      0x20\n        /* \"#utility.yul\":1612:1617   */\n      dup7\n        /* \"#utility.yul\":1608:1624   */\n      add\n        /* \"#utility.yul\":1573:1638   */\n      tag_38\n      jump\t// in\n    tag_93:\n        /* \"#utility.yul\":1663:1692   */\n      tag_94\n        /* \"#utility.yul\":1685:1691   */\n      dup2\n        /* \"#utility.yul\":1663:1692   */\n      tag_39\n      jump\t// in\n    tag_94:\n        /* \"#utility.yul\":1658:1661   */\n      dup5\n        /* \"#utility.yul\":1654:1693   */\n      add\n        /* \"#utility.yul\":1647:1693   */\n      swap2\n      pop\n        /* \"#utility.yul\":1424:1699   */\n      pop\n        /* \"#utility.yul\":1342:1699   */\n      swap3\n      swap2\n      pop\n      pop\n      jump\t// out\n        /* \"#utility.yul\":1773:2357   */\n    tag_41:\n        /* \"#utility.yul\":1872:1875   */\n      0x00\n        /* \"#utility.yul\":1908:1912   */\n      0x40\n        /* \"#utility.yul\":1903:1906   */\n      dup4\n        /* \"#utility.yul\":1899:1913   */\n      add\n        /* \"#utility.yul\":1993:1997   */\n      0x00\n        /* \"#utility.yul\":1986:1991   */\n      dup4\n        /* \"#utility.yul\":1982:1998   */\n      add\n        /* \"#utility.yul\":1976:1999   */\n      mload\n        /* \"#utility.yul\":2012:2075   */\n      tag_96\n        /* \"#utility.yul\":2069:2073   */\n      0x00\n        /* \"#utility.yul\":2064:2067   */\n      dup7\n        /* \"#utility.yul\":2060:2074   */\n      add\n        /* \"#utility.yul\":2046:2058   */\n      dup3\n        /* \"#utility.yul\":2012:2075   */\n      tag_35\n      jump\t// in\n    tag_96:\n        /* \"#utility.yul\":1923:2085   */\n      pop\n        /* \"#utility.yul\":2167:2171   */\n      0x20\n        /* \"#utility.yul\":2160:2165   */\n      dup4\n        /* \"#utility.yul\":2156:2172   */\n      add\n        /* \"#utility.yul\":2150:2173   */\n      mload\n        /* \"#utility.yul\":2220:2223   */\n      dup5\n        /* \"#utility.yul\":2214:2218   */\n      dup3\n        /* \"#utility.yul\":2210:2224   */\n      sub\n        /* \"#utility.yul\":2203:2207   */\n      0x20\n        /* \"#utility.yul\":2198:2201   */\n      dup7\n        /* \"#utility.yul\":2194:2208   */\n      add\n        /* \"#utility.yul\":2187:2225   */\n      mstore\n        /* \"#utility.yul\":2246:2319   */\n      tag_97\n        /* \"#utility.yul\":2314:2318   */\n      dup3\n        /* \"#utility.yul\":2300:2312   */\n      dup3\n        /* \"#utility.yul\":2246:2319   */\n      tag_40\n      jump\t// in\n    tag_97:\n        /* \"#utility.yul\":2238:2319   */\n      swap2\n      pop\n        /* \"#utility.yul\":2095:2330   */\n      pop\n        /* \"#utility.yul\":2347:2351   */\n      dup1\n        /* \"#utility.yul\":2340:2351   */\n      swap2\n      pop\n        /* \"#utility.yul\":1877:2357   */\n      pop\n        /* \"#utility.yul\":1773:2357   */\n      swap3\n      swap2\n      pop\n      pop\n      jump\t// out\n        /* \"#utility.yul\":2363:2599   */\n    tag_42:\n        /* \"#utility.yul\":2472:2482   */\n      0x00\n        /* \"#utility.yul\":2507:2593   */\n      tag_99\n        /* \"#utility.yul\":2589:2592   */\n      dup4\n        /* \"#utility.yul\":2581:2587   */\n      dup4\n        /* \"#utility.yul\":2507:2593   */\n      tag_41\n      jump\t// in\n    tag_99:\n        /* \"#utility.yul\":2493:2593   */\n      swap1\n      pop\n        /* \"#utility.yul\":2363:2599   */\n      swap3\n      swap2\n      pop\n      pop\n      jump\t// out\n        /* \"#utility.yul\":2605:2738   */\n    tag_43:\n        /* \"#utility.yul\":2695:2699   */\n      0x00\n        /* \"#utility.yul\":2727:2731   */\n      0x20\n        /* \"#utility.yul\":2722:2725   */\n      dup3\n        /* \"#utility.yul\":2718:2732   */\n      add\n        /* \"#utility.yul\":2710:2732   */\n      swap1\n      pop\n        /* \"#utility.yul\":2605:2738   */\n      swap2\n      swap1\n      pop\n      jump\t// out\n        /* \"#utility.yul\":2816:3887   */\n    tag_44:\n        /* \"#utility.yul\":2975:2978   */\n      0x00\n        /* \"#utility.yul\":3004:3078   */\n      tag_102\n        /* \"#utility.yul\":3072:3077   */\n      dup3\n        /* \"#utility.yul\":3004:3078   */\n      tag_31\n      jump\t// in\n    tag_102:\n        /* \"#utility.yul\":3094:3200   */\n      tag_103\n        /* \"#utility.yul\":3193:3199   */\n      dup2\n        /* \"#utility.yul\":3188:3191   */\n      dup6\n        /* \"#utility.yul\":3094:3200   */\n      tag_32\n      jump\t// in\n    tag_103:\n        /* \"#utility.yul\":3087:3200   */\n      swap4\n      pop\n        /* \"#utility.yul\":3226:3229   */\n      dup4\n        /* \"#utility.yul\":3271:3275   */\n      0x20\n        /* \"#utility.yul\":3263:3269   */\n      dup3\n        /* \"#utility.yul\":3259:3276   */\n      mul\n        /* \"#utility.yul\":3254:3257   */\n      dup6\n        /* \"#utility.yul\":3250:3277   */\n      add\n        /* \"#utility.yul\":3301:3377   */\n      tag_104\n        /* \"#utility.yul\":3371:3376   */\n      dup6\n        /* \"#utility.yul\":3301:3377   */\n      tag_33\n      jump\t// in\n    tag_104:\n        /* \"#utility.yul\":3400:3407   */\n      dup1\n        /* \"#utility.yul\":3431:3432   */\n      0x00\n        /* \"#utility.yul\":3416:3842   */\n    tag_105:\n        /* \"#utility.yul\":3441:3447   */\n      dup6\n        /* \"#utility.yul\":3438:3439   */\n      dup2\n        /* \"#utility.yul\":3435:3448   */\n      lt\n        /* \"#utility.yul\":3416:3842   */\n      iszero\n      tag_107\n      jumpi\n        /* \"#utility.yul\":3512:3521   */\n      dup5\n        /* \"#utility.yul\":3506:3510   */\n      dup5\n        /* \"#utility.yul\":3502:3522   */\n      sub\n        /* \"#utility.yul\":3497:3500   */\n      dup10\n        /* \"#utility.yul\":3490:3523   */\n      mstore\n        /* \"#utility.yul\":3563:3569   */\n      dup2\n        /* \"#utility.yul\":3557:3570   */\n      mload\n        /* \"#utility.yul\":3591:3695   */\n      tag_108\n        /* \"#utility.yul\":3690:3694   */\n      dup6\n        /* \"#utility.yul\":3675:3688   */\n      dup3\n        /* \"#utility.yul\":3591:3695   */\n      tag_42\n      jump\t// in\n    tag_108:\n        /* \"#utility.yul\":3583:3695   */\n      swap5\n      pop\n        /* \"#utility.yul\":3718:3798   */\n      tag_109\n        /* \"#utility.yul\":3791:3797   */\n      dup4\n        /* \"#utility.yul\":3718:3798   */\n      tag_43\n      jump\t// in\n    tag_109:\n        /* \"#utility.yul\":3708:3798   */\n      swap3\n      pop\n        /* \"#utility.yul\":3827:3831   */\n      0x20\n        /* \"#utility.yul\":3822:3825   */\n      dup11\n        /* \"#utility.yul\":3818:3832   */\n      add\n        /* \"#utility.yul\":3811:3832   */\n      swap10\n      pop\n        /* \"#utility.yul\":3476:3842   */\n      pop\n        /* \"#utility.yul\":3463:3464   */\n      0x01\n        /* \"#utility.yul\":3460:3461   */\n      dup2\n        /* \"#utility.yul\":3456:3465   */\n      add\n        /* \"#utility.yul\":3451:3465   */\n      swap1\n      pop\n        /* \"#utility.yul\":3416:3842   */\n      jump(tag_105)\n    tag_107:\n        /* \"#utility.yul\":3420:3434   */\n      pop\n        /* \"#utility.yul\":3858:3862   */\n      dup3\n        /* \"#utility.yul\":3851:3862   */\n      swap8\n      pop\n        /* \"#utility.yul\":3878:3881   */\n      dup8\n        /* \"#utility.yul\":3871:3881   */\n      swap6\n      pop\n        /* \"#utility.yul\":2980:3887   */\n      pop\n      pop\n      pop\n      pop\n      pop\n        /* \"#utility.yul\":2816:3887   */\n      swap3\n      swap2\n      pop\n      pop\n      jump\t// out\n        /* \"#utility.yul\":3893:4346   */\n    tag_8:\n        /* \"#utility.yul\":4076:4080   */\n      0x00\n        /* \"#utility.yul\":4114:4116   */\n      0x20\n        /* \"#utility.yul\":4103:4112   */\n      dup3\n        /* \"#utility.yul\":4099:4117   */\n      add\n        /* \"#utility.yul\":4091:4117   */\n      swap1\n      pop\n        /* \"#utility.yul\":4163:4172   */\n      dup2\n        /* \"#utility.yul\":4157:4161   */\n      dup2\n        /* \"#utility.yul\":4153:4173   */\n      sub\n        /* \"#utility.yul\":4149:4150   */\n      0x00\n        /* \"#utility.yul\":4138:4147   */\n      dup4\n        /* \"#utility.yul\":4134:4151   */\n      add\n        /* \"#utility.yul\":4127:4174   */\n      mstore\n        /* \"#utility.yul\":4191:4339   */\n      tag_111\n        /* \"#utility.yul\":4334:4338   */\n      dup2\n        /* \"#utility.yul\":4325:4331   */\n      dup5\n        /* \"#utility.yul\":4191:4339   */\n      tag_44\n      jump\t// in\n    tag_111:\n        /* \"#utility.yul\":4183:4339   */\n      swap1\n      pop\n        /* \"#utility.yul\":3893:4346   */\n      swap3\n      swap2\n      pop\n      pop\n      jump\t// out\n        /* \"#utility.yul\":4352:4427   */\n    tag_45:\n        /* \"#utility.yul\":4385:4391   */\n      0x00\n        /* \"#utility.yul\":4418:4420   */\n      0x40\n        /* \"#utility.yul\":4412:4421   */\n      mload\n        /* \"#utility.yul\":4402:4421   */\n      swap1\n      pop\n        /* \"#utility.yul\":4352:4427   */\n      swap1\n      jump\t// out\n        /* \"#utility.yul\":4433:4550   */\n    tag_46:\n        /* \"#utility.yul\":4542:4543   */\n      0x00\n        /* \"#utility.yul\":4539:4540   */\n      dup1\n        /* \"#utility.yul\":4532:4544   */\n      revert\n        /* \"#utility.yul\":4556:4673   */\n    tag_47:\n        /* \"#utility.yul\":4665:4666   */\n      0x00\n        /* \"#utility.yul\":4662:4663   */\n      dup1\n        /* \"#utility.yul\":4655:4667   */\n      revert\n        /* \"#utility.yul\":4679:4796   */\n    tag_48:\n        /* \"#utility.yul\":4788:4789   */\n      0x00\n        /* \"#utility.yul\":4785:4786   */\n      dup1\n        /* \"#utility.yul\":4778:4790   */\n      revert\n        /* \"#utility.yul\":4802:4919   */\n    tag_49:\n        /* \"#utility.yul\":4911:4912   */\n      0x00\n        /* \"#utility.yul\":4908:4909   */\n      dup1\n        /* \"#utility.yul\":4901:4913   */\n      revert\n        /* \"#utility.yul\":4925:5105   */\n    tag_50:\n        /* \"#utility.yul\":4973:5050   */\n      0x4e487b7100000000000000000000000000000000000000000000000000000000\n        /* \"#utility.yul\":4970:4971   */\n      0x00\n        /* \"#utility.yul\":4963:5051   */\n      mstore\n        /* \"#utility.yul\":5070:5074   */\n      0x41\n        /* \"#utility.yul\":5067:5068   */\n      0x04\n        /* \"#utility.yul\":5060:5075   */\n      mstore\n        /* \"#utility.yul\":5094:5098   */\n      0x24\n        /* \"#utility.yul\":5091:5092   */\n      0x00\n        /* \"#utility.yul\":5084:5099   */\n      revert\n        /* \"#utility.yul\":5111:5392   */\n    tag_51:\n        /* \"#utility.yul\":5194:5221   */\n      tag_119\n        /* \"#utility.yul\":5216:5220   */\n      dup3\n        /* \"#utility.yul\":5194:5221   */\n      tag_39\n      jump\t// in\n    tag_119:\n        /* \"#utility.yul\":5186:5192   */\n      dup2\n        /* \"#utility.yul\":5182:5222   */\n      add\n        /* \"#utility.yul\":5324:5330   */\n      dup2\n        /* \"#utility.yul\":5312:5322   */\n      dup2\n        /* \"#utility.yul\":5309:5331   */\n      lt\n        /* \"#utility.yul\":5288:5306   */\n      0xffffffffffffffff\n        /* \"#utility.yul\":5276:5286   */\n      dup3\n        /* \"#utility.yul\":5273:5307   */\n      gt\n        /* \"#utility.yul\":5270:5332   */\n      or\n        /* \"#utility.yul\":5267:5355   */\n      iszero\n      tag_120\n      jumpi\n        /* \"#utility.yul\":5335:5353   */\n      tag_121\n      tag_50\n      jump\t// in\n    tag_121:\n        /* \"#utility.yul\":5267:5355   */\n    tag_120:\n        /* \"#utility.yul\":5375:5385   */\n      dup1\n        /* \"#utility.yul\":5371:5373   */\n      0x40\n        /* \"#utility.yul\":5364:5386   */\n      mstore\n        /* \"#utility.yul\":5154:5392   */\n      pop\n        /* \"#utility.yul\":5111:5392   */\n      pop\n      pop\n      jump\t// out\n        /* \"#utility.yul\":5398:5527   */\n    tag_52:\n        /* \"#utility.yul\":5432:5438   */\n      0x00\n        /* \"#utility.yul\":5459:5479   */\n      tag_123\n      tag_45\n      jump\t// in\n    tag_123:\n        /* \"#utility.yul\":5449:5479   */\n      swap1\n      pop\n        /* \"#utility.yul\":5488:5521   */\n      tag_124\n        /* \"#utility.yul\":5516:5520   */\n      dup3\n        /* \"#utility.yul\":5508:5514   */\n      dup3\n        /* \"#utility.yul\":5488:5521   */\n      tag_51\n      jump\t// in\n    tag_124:\n        /* \"#utility.yul\":5398:5527   */\n      swap2\n      swap1\n      pop\n      jump\t// out\n        /* \"#utility.yul\":5533:5841   */\n    tag_53:\n        /* \"#utility.yul\":5595:5599   */\n      0x00\n        /* \"#utility.yul\":5685:5703   */\n      0xffffffffffffffff\n        /* \"#utility.yul\":5677:5683   */\n      dup3\n        /* \"#utility.yul\":5674:5704   */\n      gt\n        /* \"#utility.yul\":5671:5727   */\n      iszero\n      tag_126\n      jumpi\n        /* \"#utility.yul\":5707:5725   */\n      tag_127\n      tag_50\n      jump\t// in\n    tag_127:\n        /* \"#utility.yul\":5671:5727   */\n    tag_126:\n        /* \"#utility.yul\":5745:5774   */\n      tag_128\n        /* \"#utility.yul\":5767:5773   */\n      dup3\n        /* \"#utility.yul\":5745:5774   */\n      tag_39\n      jump\t// in\n    tag_128:\n        /* \"#utility.yul\":5737:5774   */\n      swap1\n      pop\n        /* \"#utility.yul\":5829:5833   */\n      0x20\n        /* \"#utility.yul\":5823:5827   */\n      dup2\n        /* \"#utility.yul\":5819:5834   */\n      add\n        /* \"#utility.yul\":5811:5834   */\n      swap1\n      pop\n        /* \"#utility.yul\":5533:5841   */\n      swap2\n      swap1\n      pop\n      jump\t// out\n        /* \"#utility.yul\":5847:5993   */\n    tag_54:\n        /* \"#utility.yul\":5944:5950   */\n      dup3\n        /* \"#utility.yul\":5939:5942   */\n      dup2\n        /* \"#utility.yul\":5934:5937   */\n      dup4\n        /* \"#utility.yul\":5921:5951   */\n      calldatacopy\n        /* \"#utility.yul\":5985:5986   */\n      0x00\n        /* \"#utility.yul\":5976:5982   */\n      dup4\n        /* \"#utility.yul\":5971:5974   */\n      dup4\n        /* \"#utility.yul\":5967:5983   */\n      add\n        /* \"#utility.yul\":5960:5987   */\n      mstore\n        /* \"#utility.yul\":5847:5993   */\n      pop\n      pop\n      pop\n      jump\t// out\n        /* \"#utility.yul\":5999:6424   */\n    tag_55:\n        /* \"#utility.yul\":6077:6082   */\n      0x00\n        /* \"#utility.yul\":6102:6168   */\n      tag_131\n        /* \"#utility.yul\":6118:6167   */\n      tag_132\n        /* \"#utility.yul\":6160:6166   */\n      dup5\n        /* \"#utility.yul\":6118:6167   */\n      tag_53\n      jump\t// in\n    tag_132:\n        /* \"#utility.yul\":6102:6168   */\n      tag_52\n      jump\t// in\n    tag_131:\n        /* \"#utility.yul\":6093:6168   */\n      swap1\n      pop\n        /* \"#utility.yul\":6191:6197   */\n      dup3\n        /* \"#utility.yul\":6184:6189   */\n      dup2\n        /* \"#utility.yul\":6177:6198   */\n      mstore\n        /* \"#utility.yul\":6229:6233   */\n      0x20\n        /* \"#utility.yul\":6222:6227   */\n      dup2\n        /* \"#utility.yul\":6218:6234   */\n      add\n        /* \"#utility.yul\":6267:6270   */\n      dup5\n        /* \"#utility.yul\":6258:6264   */\n      dup5\n        /* \"#utility.yul\":6253:6256   */\n      dup5\n        /* \"#utility.yul\":6249:6265   */\n      add\n        /* \"#utility.yul\":6246:6271   */\n      gt\n        /* \"#utility.yul\":6243:6355   */\n      iszero\n      tag_133\n      jumpi\n        /* \"#utility.yul\":6274:6353   */\n      tag_134\n      tag_49\n      jump\t// in\n    tag_134:\n        /* \"#utility.yul\":6243:6355   */\n    tag_133:\n        /* \"#utility.yul\":6364:6418   */\n      tag_135\n        /* \"#utility.yul\":6411:6417   */\n      dup5\n        /* \"#utility.yul\":6406:6409   */\n      dup3\n        /* \"#utility.yul\":6401:6404   */\n      dup6\n        /* \"#utility.yul\":6364:6418   */\n      tag_54\n      jump\t// in\n    tag_135:\n        /* \"#utility.yul\":6083:6424   */\n      pop\n        /* \"#utility.yul\":5999:6424   */\n      swap4\n      swap3\n      pop\n      pop\n      pop\n      jump\t// out\n        /* \"#utility.yul\":6444:6784   */\n    tag_56:\n        /* \"#utility.yul\":6500:6505   */\n      0x00\n        /* \"#utility.yul\":6549:6552   */\n      dup3\n        /* \"#utility.yul\":6542:6546   */\n      0x1f\n        /* \"#utility.yul\":6534:6540   */\n      dup4\n        /* \"#utility.yul\":6530:6547   */\n      add\n        /* \"#utility.yul\":6526:6553   */\n      slt\n        /* \"#utility.yul\":6516:6638   */\n      tag_137\n      jumpi\n        /* \"#utility.yul\":6557:6636   */\n      tag_138\n      tag_48\n      jump\t// in\n    tag_138:\n        /* \"#utility.yul\":6516:6638   */\n    tag_137:\n        /* \"#utility.yul\":6674:6680   */\n      dup2\n        /* \"#utility.yul\":6661:6681   */\n      calldataload\n        /* \"#utility.yul\":6699:6778   */\n      tag_139\n        /* \"#utility.yul\":6774:6777   */\n      dup5\n        /* \"#utility.yul\":6766:6772   */\n      dup3\n        /* \"#utility.yul\":6759:6763   */\n      0x20\n        /* \"#utility.yul\":6751:6757   */\n      dup7\n        /* \"#utility.yul\":6747:6764   */\n      add\n        /* \"#utility.yul\":6699:6778   */\n      tag_55\n      jump\t// in\n    tag_139:\n        /* \"#utility.yul\":6690:6778   */\n      swap2\n      pop\n        /* \"#utility.yul\":6506:6784   */\n      pop\n        /* \"#utility.yul\":6444:6784   */\n      swap3\n      swap2\n      pop\n      pop\n      jump\t// out\n        /* \"#utility.yul\":6790:7299   */\n    tag_11:\n        /* \"#utility.yul\":6859:6865   */\n      0x00\n        /* \"#utility.yul\":6908:6910   */\n      0x20\n        /* \"#utility.yul\":6896:6905   */\n      dup3\n        /* \"#utility.yul\":6887:6894   */\n      dup5\n        /* \"#utility.yul\":6883:6906   */\n      sub\n        /* \"#utility.yul\":6879:6911   */\n      slt\n        /* \"#utility.yul\":6876:6995   */\n      iszero\n      tag_141\n      jumpi\n        /* \"#utility.yul\":6914:6993   */\n      tag_142\n      tag_46\n      jump\t// in\n    tag_142:\n        /* \"#utility.yul\":6876:6995   */\n    tag_141:\n        /* \"#utility.yul\":7062:7063   */\n      0x00\n        /* \"#utility.yul\":7051:7060   */\n      dup3\n        /* \"#utility.yul\":7047:7064   */\n      add\n        /* \"#utility.yul\":7034:7065   */\n      calldataload\n        /* \"#utility.yul\":7092:7110   */\n      0xffffffffffffffff\n        /* \"#utility.yul\":7084:7090   */\n      dup2\n        /* \"#utility.yul\":7081:7111   */\n      gt\n        /* \"#utility.yul\":7078:7195   */\n      iszero\n      tag_143\n      jumpi\n        /* \"#utility.yul\":7114:7193   */\n      tag_144\n      tag_47\n      jump\t// in\n    tag_144:\n        /* \"#utility.yul\":7078:7195   */\n    tag_143:\n        /* \"#utility.yul\":7219:7282   */\n      tag_145\n        /* \"#utility.yul\":7274:7281   */\n      dup5\n        /* \"#utility.yul\":7265:7271   */\n      dup3\n        /* \"#utility.yul\":7254:7263   */\n      dup6\n        /* \"#utility.yul\":7250:7272   */\n      add\n        /* \"#utility.yul\":7219:7282   */\n      tag_56\n      jump\t// in\n    tag_145:\n        /* \"#utility.yul\":7209:7282   */\n      swap2\n      pop\n        /* \"#utility.yul\":7005:7292   */\n      pop\n        /* \"#utility.yul\":6790:7299   */\n      swap3\n      swap2\n      pop\n      pop\n      jump\t// out\n        /* \"#utility.yul\":7305:7485   */\n    tag_57:\n        /* \"#utility.yul\":7353:7430   */\n      0x4e487b7100000000000000000000000000000000000000000000000000000000\n        /* \"#utility.yul\":7350:7351   */\n      0x00\n        /* \"#utility.yul\":7343:7431   */\n      mstore\n        /* \"#utility.yul\":7450:7454   */\n      0x22\n        /* \"#utility.yul\":7447:7448   */\n      0x04\n        /* \"#utility.yul\":7440:7455   */\n      mstore\n        /* \"#utility.yul\":7474:7478   */\n      0x24\n        /* \"#utility.yul\":7471:7472   */\n      0x00\n        /* \"#utility.yul\":7464:7479   */\n      revert\n        /* \"#utility.yul\":7491:7811   */\n    tag_18:\n        /* \"#utility.yul\":7535:7541   */\n      0x00\n        /* \"#utility.yul\":7572:7573   */\n      0x02\n        /* \"#utility.yul\":7566:7570   */\n      dup3\n        /* \"#utility.yul\":7562:7574   */\n      div\n        /* \"#utility.yul\":7552:7574   */\n      swap1\n      pop\n        /* \"#utility.yul\":7619:7620   */\n      0x01\n        /* \"#utility.yul\":7613:7617   */\n      dup3\n        /* \"#utility.yul\":7609:7621   */\n      and\n        /* \"#utility.yul\":7640:7658   */\n      dup1\n        /* \"#utility.yul\":7630:7711   */\n      tag_148\n      jumpi\n        /* \"#utility.yul\":7696:7700   */\n      0x7f\n        /* \"#utility.yul\":7688:7694   */\n      dup3\n        /* \"#utility.yul\":7684:7701   */\n      and\n        /* \"#utility.yul\":7674:7701   */\n      swap2\n      pop\n        /* \"#utility.yul\":7630:7711   */\n    tag_148:\n        /* \"#utility.yul\":7758:7760   */\n      0x20\n        /* \"#utility.yul\":7750:7756   */\n      dup3\n        /* \"#utility.yul\":7747:7761   */\n      lt\n        /* \"#utility.yul\":7727:7745   */\n      dup2\n        /* \"#utility.yul\":7724:7762   */\n      sub\n        /* \"#utility.yul\":7721:7805   */\n      tag_149\n      jumpi\n        /* \"#utility.yul\":7777:7795   */\n      tag_150\n      tag_57\n      jump\t// in\n    tag_150:\n        /* \"#utility.yul\":7721:7805   */\n    tag_149:\n        /* \"#utility.yul\":7542:7811   */\n      pop\n        /* \"#utility.yul\":7491:7811   */\n      swap2\n      swap1\n      pop\n      jump\t// out\n        /* \"#utility.yul\":7817:7997   */\n    tag_58:\n        /* \"#utility.yul\":7865:7942   */\n      0x4e487b7100000000000000000000000000000000000000000000000000000000\n        /* \"#utility.yul\":7862:7863   */\n      0x00\n        /* \"#utility.yul\":7855:7943   */\n      mstore\n        /* \"#utility.yul\":7962:7966   */\n      0x11\n        /* \"#utility.yul\":7959:7960   */\n      0x04\n        /* \"#utility.yul\":7952:7967   */\n      mstore\n        /* \"#utility.yul\":7986:7990   */\n      0x24\n        /* \"#utility.yul\":7983:7984   */\n      0x00\n        /* \"#utility.yul\":7976:7991   */\n      revert\n        /* \"#utility.yul\":8003:8194   */\n    tag_25:\n        /* \"#utility.yul\":8043:8046   */\n      0x00\n        /* \"#utility.yul\":8062:8082   */\n      tag_153\n        /* \"#utility.yul\":8080:8081   */\n      dup3\n        /* \"#utility.yul\":8062:8082   */\n      tag_34\n      jump\t// in\n    tag_153:\n        /* \"#utility.yul\":8057:8082   */\n      swap2\n      pop\n        /* \"#utility.yul\":8096:8116   */\n      tag_154\n        /* \"#utility.yul\":8114:8115   */\n      dup4\n        /* \"#utility.yul\":8096:8116   */\n      tag_34\n      jump\t// in\n    tag_154:\n        /* \"#utility.yul\":8091:8116   */\n      swap3\n      pop\n        /* \"#utility.yul\":8139:8140   */\n      dup3\n        /* \"#utility.yul\":8136:8137   */\n      dup3\n        /* \"#utility.yul\":8132:8141   */\n      add\n        /* \"#utility.yul\":8125:8141   */\n      swap1\n      pop\n        /* \"#utility.yul\":8160:8163   */\n      dup1\n        /* \"#utility.yul\":8157:8158   */\n      dup3\n        /* \"#utility.yul\":8154:8164   */\n      gt\n        /* \"#utility.yul\":8151:8187   */\n      iszero\n      tag_155\n      jumpi\n        /* \"#utility.yul\":8167:8185   */\n      tag_156\n      tag_58\n      jump\t// in\n    tag_156:\n        /* \"#utility.yul\":8151:8187   */\n    tag_155:\n        /* \"#utility.yul\":8003:8194   */\n      swap3\n      swap2\n      pop\n      pop\n      jump\t// out\n        /* \"#utility.yul\":8200:8341   */\n    tag_59:\n        /* \"#utility.yul\":8249:8253   */\n      0x00\n        /* \"#utility.yul\":8272:8275   */\n      dup2\n        /* \"#utility.yul\":8264:8275   */\n      swap1\n      pop\n        /* \"#utility.yul\":8295:8298   */\n      dup2\n        /* \"#utility.yul\":8292:8293   */\n      0x00\n        /* \"#utility.yul\":8285:8299   */\n      mstore\n        /* \"#utility.yul\":8329:8333   */\n      0x20\n        /* \"#utility.yul\":8326:8327   */\n      0x00\n        /* \"#utility.yul\":8316:8334   */\n      keccak256\n        /* \"#utility.yul\":8308:8334   */\n      swap1\n      pop\n        /* \"#utility.yul\":8200:8341   */\n      swap2\n      swap1\n      pop\n      jump\t// out\n        /* \"#utility.yul\":8347:8440   */\n    tag_60:\n        /* \"#utility.yul\":8384:8390   */\n      0x00\n        /* \"#utility.yul\":8431:8433   */\n      0x20\n        /* \"#utility.yul\":8426:8428   */\n      0x1f\n        /* \"#utility.yul\":8419:8424   */\n      dup4\n        /* \"#utility.yul\":8415:8429   */\n      add\n        /* \"#utility.yul\":8411:8434   */\n      div\n        /* \"#utility.yul\":8401:8434   */\n      swap1\n      pop\n        /* \"#utility.yul\":8347:8440   */\n      swap2\n      swap1\n      pop\n      jump\t// out\n        /* \"#utility.yul\":8446:8553   */\n    tag_61:\n        /* \"#utility.yul\":8490:8498   */\n      0x00\n        /* \"#utility.yul\":8540:8545   */\n      dup3\n        /* \"#utility.yul\":8534:8538   */\n      dup3\n        /* \"#utility.yul\":8530:8546   */\n      shl\n        /* \"#utility.yul\":8509:8546   */\n      swap1\n      pop\n        /* \"#utility.yul\":8446:8553   */\n      swap3\n      swap2\n      pop\n      pop\n      jump\t// out\n        /* \"#utility.yul\":8559:8952   */\n    tag_62:\n        /* \"#utility.yul\":8628:8634   */\n      0x00\n        /* \"#utility.yul\":8678:8679   */\n      0x08\n        /* \"#utility.yul\":8666:8676   */\n      dup4\n        /* \"#utility.yul\":8662:8680   */\n      mul\n        /* \"#utility.yul\":8701:8798   */\n      tag_161\n        /* \"#utility.yul\":8731:8797   */\n      0xffffffffffffffffffffffffffffffffffffffffffffffffffffffffffffffff\n        /* \"#utility.yul\":8720:8729   */\n      dup3\n        /* \"#utility.yul\":8701:8798   */\n      tag_61\n      jump\t// in\n    tag_161:\n        /* \"#utility.yul\":8819:8858   */\n      tag_162\n        /* \"#utility.yul\":8849:8857   */\n      dup7\n        /* \"#utility.yul\":8838:8847   */\n      dup4\n        /* \"#utility.yul\":8819:8858   */\n      tag_61\n      jump\t// in\n    tag_162:\n        /* \"#utility.yul\":8807:8858   */\n      swap6\n      pop\n        /* \"#utility.yul\":8891:8895   */\n      dup1\n        /* \"#utility.yul\":8887:8896   */\n      not\n        /* \"#utility.yul\":8880:8885   */\n      dup5\n        /* \"#utility.yul\":8876:8897   */\n      and\n        /* \"#utility.yul\":8867:8897   */\n      swap4\n      pop\n        /* \"#utility.yul\":8940:8944   */\n      dup1\n        /* \"#utility.yul\":8930:8938   */\n      dup7\n        /* \"#utility.yul\":8926:8945   */\n      and\n        /* \"#utility.yul\":8919:8924   */\n      dup5\n        /* \"#utility.yul\":8916:8946   */\n      or\n        /* \"#utility.yul\":8906:8946   */\n      swap3\n      pop\n        /* \"#utility.yul\":8635:8952   */\n      pop\n      pop\n        /* \"#utility.yul\":8559:8952   */\n      swap4\n      swap3\n      pop\n      pop\n      pop\n      jump\t// out\n        /* \"#utility.yul\":8958:9018   */\n    tag_63:\n        /* \"#utility.yul\":8986:8989   */\n      0x00\n        /* \"#utility.yul\":9007:9012   */\n      dup2\n        /* \"#utility.yul\":9000:9012   */\n      swap1\n      pop\n        /* \"#utility.yul\":8958:9018   */\n      swap2\n      swap1\n      pop\n      jump\t// out\n        /* \"#utility.yul\":9024:9166   */\n    tag_64:\n        /* \"#utility.yul\":9074:9083   */\n      0x00\n        /* \"#utility.yul\":9107:9160   */\n      tag_165\n        /* \"#utility.yul\":9125:9159   */\n      tag_166\n        /* \"#utility.yul\":9134:9158   */\n      tag_167\n        /* \"#utility.yul\":9152:9157   */\n      dup5\n        /* \"#utility.yul\":9134:9158   */\n      tag_34\n      jump\t// in\n    tag_167:\n        /* \"#utility.yul\":9125:9159   */\n      tag_63\n      jump\t// in\n    tag_166:\n        /* \"#utility.yul\":9107:9160   */\n      tag_34\n      jump\t// in\n    tag_165:\n        /* \"#utility.yul\":9094:9160   */\n      swap1\n      pop\n        /* \"#utility.yul\":9024:9166   */\n      swap2\n      swap1\n      pop\n      jump\t// out\n        /* \"#utility.yul\":9172:9247   */\n    tag_65:\n        /* \"#utility.yul\":9215:9218   */\n      0x00\n        /* \"#utility.yul\":9236:9241   */\n      dup2\n        /* \"#utility.yul\":9229:9241   */\n      swap1\n      pop\n        /* \"#utility.yul\":9172:9247   */\n      swap2\n      swap1\n      pop\n      jump\t// out\n        /* \"#utility.yul\":9253:9522   */\n    tag_66:\n        /* \"#utility.yul\":9363:9402   */\n      tag_170\n        /* \"#utility.yul\":9394:9401   */\n      dup4\n        /* \"#utility.yul\":9363:9402   */\n      tag_64\n      jump\t// in\n    tag_170:\n        /* \"#utility.yul\":9424:9515   */\n      tag_171\n        /* \"#utility.yul\":9473:9514   */\n      tag_172\n        /* \"#utility.yul\":9497:9513   */\n      dup3\n        /* \"#utility.yul\":9473:9514   */\n      tag_65\n      jump\t// in\n    tag_172:\n        /* \"#utility.yul\":9465:9471   */\n      dup5\n        /* \"#utility.yul\":9458:9462   */\n      dup5\n        /* \"#utility.yul\":9452:9463   */\n      sload\n        /* \"#utility.yul\":9424:9515   */\n      tag_62\n      jump\t// in\n    tag_171:\n        /* \"#utility.yul\":9418:9422   */\n      dup3\n        /* \"#utility.yul\":9411:9516   */\n      sstore\n        /* \"#utility.yul\":9329:9522   */\n      pop\n        /* \"#utility.yul\":9253:9522   */\n      pop\n      pop\n      pop\n      jump\t// out\n        /* \"#utility.yul\":9528:9601   */\n    tag_67:\n        /* \"#utility.yul\":9573:9576   */\n      0x00\n        /* \"#utility.yul\":9528:9601   */\n      swap1\n      jump\t// out\n        /* \"#utility.yul\":9607:9796   */\n    tag_68:\n        /* \"#utility.yul\":9684:9716   */\n      tag_175\n      tag_67\n      jump\t// in\n    tag_175:\n        /* \"#utility.yul\":9725:9790   */\n      tag_176\n        /* \"#utility.yul\":9783:9789   */\n      dup2\n        /* \"#utility.yul\":9775:9781   */\n      dup5\n        /* \"#utility.yul\":9769:9773   */\n      dup5\n        /* \"#utility.yul\":9725:9790   */\n      tag_66\n      jump\t// in\n    tag_176:\n        /* \"#utility.yul\":9660:9796   */\n      pop\n        /* \"#utility.yul\":9607:9796   */\n      pop\n      pop\n      jump\t// out\n        /* \"#utility.yul\":9802:9988   */\n    tag_69:\n        /* \"#utility.yul\":9862:9982   */\n    tag_178:\n        /* \"#utility.yul\":9879:9882   */\n      dup2\n        /* \"#utility.yul\":9872:9877   */\n      dup2\n        /* \"#utility.yul\":9869:9883   */\n      lt\n        /* \"#utility.yul\":9862:9982   */\n      iszero\n      tag_180\n      jumpi\n        /* \"#utility.yul\":9933:9972   */\n      tag_181\n        /* \"#utility.yul\":9970:9971   */\n      0x00\n        /* \"#utility.yul\":9963:9968   */\n      dup3\n        /* \"#utility.yul\":9933:9972   */\n      tag_68\n      jump\t// in\n    tag_181:\n        /* \"#utility.yul\":9906:9907   */\n      0x01\n        /* \"#utility.yul\":9899:9904   */\n      dup2\n        /* \"#utility.yul\":9895:9908   */\n      add\n        /* \"#utility.yul\":9886:9908   */\n      swap1\n      pop\n        /* \"#utility.yul\":9862:9982   */\n      jump(tag_178)\n    tag_180:\n        /* \"#utility.yul\":9802:9988   */\n      pop\n      pop\n      jump\t// out\n        /* \"#utility.yul\":9994:10537   */\n    tag_70:\n        /* \"#utility.yul\":10095:10097   */\n      0x1f\n        /* \"#utility.yul\":10090:10093   */\n      dup3\n        /* \"#utility.yul\":10087:10098   */\n      gt\n        /* \"#utility.yul\":10084:10530   */\n      iszero\n      tag_183\n      jumpi\n        /* \"#utility.yul\":10129:10167   */\n      tag_184\n        /* \"#utility.yul\":10161:10166   */\n      dup2\n        /* \"#utility.yul\":10129:10167   */\n      tag_59\n      jump\t// in\n    tag_184:\n        /* \"#utility.yul\":10213:10242   */\n      tag_185\n        /* \"#utility.yul\":10231:10241   */\n      dup5\n        /* \"#utility.yul\":10213:10242   */\n      tag_60\n      jump\t// in\n    tag_185:\n        /* \"#utility.yul\":10203:10211   */\n      dup2\n        /* \"#utility.yul\":10199:10243   */\n      add\n        /* \"#utility.yul\":10396:10398   */\n      0x20\n        /* \"#utility.yul\":10384:10394   */\n      dup6\n        /* \"#utility.yul\":10381:10399   */\n      lt\n        /* \"#utility.yul\":10378:10427   */\n      iszero\n      tag_186\n      jumpi\n        /* \"#utility.yul\":10417:10425   */\n      dup2\n        /* \"#utility.yul\":10402:10425   */\n      swap1\n      pop\n        /* \"#utility.yul\":10378:10427   */\n    tag_186:\n        /* \"#utility.yul\":10440:10520   */\n      tag_187\n        /* \"#utility.yul\":10496:10518   */\n      tag_188\n        /* \"#utility.yul\":10514:10517   */\n      dup6\n        /* \"#utility.yul\":10496:10518   */\n      tag_60\n      jump\t// in\n    tag_188:\n        /* \"#utility.yul\":10486:10494   */\n      dup4\n        /* \"#utility.yul\":10482:10519   */\n      add\n        /* \"#utility.yul\":10469:10480   */\n      dup3\n        /* \"#utility.yul\":10440:10520   */\n      tag_69\n      jump\t// in\n    tag_187:\n        /* \"#utility.yul\":10099:10530   */\n      pop\n      pop\n        /* \"#utility.yul\":10084:10530   */\n    tag_183:\n        /* \"#utility.yul\":9994:10537   */\n      pop\n      pop\n      pop\n      jump\t// out\n        /* \"#utility.yul\":10543:10660   */\n    tag_71:\n        /* \"#utility.yul\":10597:10605   */\n      0x00\n        /* \"#utility.yul\":10647:10652   */\n      dup3\n        /* \"#utility.yul\":10641:10645   */\n      dup3\n        /* \"#utility.yul\":10637:10653   */\n      shr\n        /* \"#utility.yul\":10616:10653   */\n      swap1\n      pop\n        /* \"#utility.yul\":10543:10660   */\n      swap3\n      swap2\n      pop\n      pop\n      jump\t// out\n        /* \"#utility.yul\":10666:10835   */\n    tag_72:\n        /* \"#utility.yul\":10710:10716   */\n      0x00\n        /* \"#utility.yul\":10743:10794   */\n      tag_191\n        /* \"#utility.yul\":10791:10792   */\n      0x00\n        /* \"#utility.yul\":10787:10793   */\n      not\n        /* \"#utility.yul\":10779:10784   */\n      dup5\n        /* \"#utility.yul\":10776:10777   */\n      0x08\n        /* \"#utility.yul\":10772:10785   */\n      mul\n        /* \"#utility.yul\":10743:10794   */\n      tag_71\n      jump\t// in\n    tag_191:\n        /* \"#utility.yul\":10739:10795   */\n      not\n        /* \"#utility.yul\":10824:10828   */\n      dup1\n        /* \"#utility.yul\":10818:10822   */\n      dup4\n        /* \"#utility.yul\":10814:10829   */\n      and\n        /* \"#utility.yul\":10804:10829   */\n      swap2\n      pop\n        /* \"#utility.yul\":10717:10835   */\n      pop\n        /* \"#utility.yul\":10666:10835   */\n      swap3\n      swap2\n      pop\n      pop\n      jump\t// out\n        /* \"#utility.yul\":10840:11135   */\n    tag_73:\n        /* \"#utility.yul\":10916:10920   */\n      0x00\n        /* \"#utility.yul\":11062:11091   */\n      tag_193\n        /* \"#utility.yul\":11087:11090   */\n      dup4\n        /* \"#utility.yul\":11081:11085   */\n      dup4\n        /* \"#utility.yul\":11062:11091   */\n      tag_72\n      jump\t// in\n    tag_193:\n        /* \"#utility.yul\":11054:11091   */\n      swap2\n      pop\n        /* \"#utility.yul\":11124:11127   */\n      dup3\n        /* \"#utility.yul\":11121:11122   */\n      0x02\n        /* \"#utility.yul\":11117:11128   */\n      mul\n        /* \"#utility.yul\":11111:11115   */\n      dup3\n        /* \"#utility.yul\":11108:11129   */\n      or\n        /* \"#utility.yul\":11100:11129   */\n      swap1\n      pop\n        /* \"#utility.yul\":10840:11135   */\n      swap3\n      swap2\n      pop\n      pop\n      jump\t// out\n        /* \"#utility.yul\":11140:12535   */\n    tag_28:\n        /* \"#utility.yul\":11257:11294   */\n      tag_195\n        /* \"#utility.yul\":11290:11293   */\n      dup3\n        /* \"#utility.yul\":11257:11294   */\n      tag_36\n      jump\t// in\n    tag_195:\n        /* \"#utility.yul\":11359:11377   */\n      0xffffffffffffffff\n        /* \"#utility.yul\":11351:11357   */\n      dup2\n        /* \"#utility.yul\":11348:11378   */\n      gt\n        /* \"#utility.yul\":11345:11401   */\n      iszero\n      tag_196\n      jumpi\n        /* \"#utility.yul\":11381:11399   */\n      tag_197\n      tag_50\n      jump\t// in\n    tag_197:\n        /* \"#utility.yul\":11345:11401   */\n    tag_196:\n        /* \"#utility.yul\":11425:11463   */\n      tag_198\n        /* \"#utility.yul\":11457:11461   */\n      dup3\n        /* \"#utility.yul\":11451:11462   */\n      sload\n        /* \"#utility.yul\":11425:11463   */\n      tag_18\n      jump\t// in\n    tag_198:\n        /* \"#utility.yul\":11510:11577   */\n      tag_199\n        /* \"#utility.yul\":11570:11576   */\n      dup3\n        /* \"#utility.yul\":11562:11568   */\n      dup3\n        /* \"#utility.yul\":11556:11560   */\n      dup6\n        /* \"#utility.yul\":11510:11577   */\n      tag_70\n      jump\t// in\n    tag_199:\n        /* \"#utility.yul\":11604:11605   */\n      0x00\n        /* \"#utility.yul\":11628:11632   */\n      0x20\n        /* \"#utility.yul\":11615:11632   */\n      swap1\n      pop\n        /* \"#utility.yul\":11660:11662   */\n      0x1f\n        /* \"#utility.yul\":11652:11658   */\n      dup4\n        /* \"#utility.yul\":11649:11663   */\n      gt\n        /* \"#utility.yul\":11677:11678   */\n      0x01\n        /* \"#utility.yul\":11672:12290   */\n      dup2\n      eq\n      tag_201\n      jumpi\n        /* \"#utility.yul\":12334:12335   */\n      0x00\n        /* \"#utility.yul\":12351:12357   */\n      dup5\n        /* \"#utility.yul\":12348:12425   */\n      iszero\n      tag_202\n      jumpi\n        /* \"#utility.yul\":12400:12409   */\n      dup3\n        /* \"#utility.yul\":12395:12398   */\n      dup8\n        /* \"#utility.yul\":12391:12410   */\n      add\n        /* \"#utility.yul\":12385:12411   */\n      mload\n        /* \"#utility.yul\":12376:12411   */\n      swap1\n      pop\n        /* \"#utility.yul\":12348:12425   */\n    tag_202:\n        /* \"#utility.yul\":12451:12518   */\n      tag_203\n        /* \"#utility.yul\":12511:12517   */\n      dup6\n        /* \"#utility.yul\":12504:12509   */\n      dup3\n        /* \"#utility.yul\":12451:12518   */\n      tag_73\n      jump\t// in\n    tag_203:\n        /* \"#utility.yul\":12445:12449   */\n      dup7\n        /* \"#utility.yul\":12438:12519   */\n      sstore\n        /* \"#utility.yul\":12307:12529   */\n      pop\n        /* \"#utility.yul\":11642:12529   */\n      jump(tag_200)\n        /* \"#utility.yul\":11672:12290   */\n    tag_201:\n        /* \"#utility.yul\":11724:11728   */\n      0x1f\n        /* \"#utility.yul\":11720:11729   */\n      not\n        /* \"#utility.yul\":11712:11718   */\n      dup5\n        /* \"#utility.yul\":11708:11730   */\n      and\n        /* \"#utility.yul\":11758:11795   */\n      tag_204\n        /* \"#utility.yul\":11790:11794   */\n      dup7\n        /* \"#utility.yul\":11758:11795   */\n      tag_59\n      jump\t// in\n    tag_204:\n        /* \"#utility.yul\":11817:11818   */\n      0x00\n        /* \"#utility.yul\":11831:12039   */\n    tag_205:\n        /* \"#utility.yul\":11845:11852   */\n      dup3\n        /* \"#utility.yul\":11842:11843   */\n      dup2\n        /* \"#utility.yul\":11839:11853   */\n      lt\n        /* \"#utility.yul\":11831:12039   */\n      iszero\n      tag_207\n      jumpi\n        /* \"#utility.yul\":11924:11933   */\n      dup5\n        /* \"#utility.yul\":11919:11922   */\n      dup10\n        /* \"#utility.yul\":11915:11934   */\n      add\n        /* \"#utility.yul\":11909:11935   */\n      mload\n        /* \"#utility.yul\":11901:11907   */\n      dup3\n        /* \"#utility.yul\":11894:11936   */\n      sstore\n        /* \"#utility.yul\":11975:11976   */\n      0x01\n        /* \"#utility.yul\":11967:11973   */\n      dup3\n        /* \"#utility.yul\":11963:11977   */\n      add\n        /* \"#utility.yul\":11953:11977   */\n      swap2\n      pop\n        /* \"#utility.yul\":12022:12024   */\n      0x20\n        /* \"#utility.yul\":12011:12020   */\n      dup6\n        /* \"#utility.yul\":12007:12025   */\n      add\n        /* \"#utility.yul\":11994:12025   */\n      swap5\n      pop\n        /* \"#utility.yul\":11868:11872   */\n      0x20\n        /* \"#utility.yul\":11865:11866   */\n      dup2\n        /* \"#utility.yul\":11861:11873   */\n      add\n        /* \"#utility.yul\":11856:11873   */\n      swap1\n      pop\n        /* \"#utility.yul\":11831:12039   */\n      jump(tag_205)\n    tag_207:\n        /* \"#utility.yul\":12067:12073   */\n      dup7\n        /* \"#utility.yul\":12058:12065   */\n      dup4\n        /* \"#utility.yul\":12055:12074   */\n      lt\n        /* \"#utility.yul\":12052:12231   */\n      iszero\n      tag_208\n      jumpi\n        /* \"#utility.yul\":12125:12134   */\n      dup5\n        /* \"#utility.yul\":12120:12123   */\n      dup10\n        /* \"#utility.yul\":12116:12135   */\n      add\n        /* \"#utility.yul\":12110:12136   */\n      mload\n        /* \"#utility.yul\":12168:12216   */\n      tag_209\n        /* \"#utility.yul\":12210:12214   */\n      0x1f\n        /* \"#utility.yul\":12202:12208   */\n      dup10\n        /* \"#utility.yul\":12198:12215   */\n      and\n        /* \"#utility.yul\":12187:12196   */\n      dup3\n        /* \"#utility.yul\":12168:12216   */\n      tag_72\n      jump\t// in\n    tag_209:\n        /* \"#utility.yul\":12160:12166   */\n      dup4\n        /* \"#utility.yul\":12153:12217   */\n      sstore\n        /* \"#utility.yul\":12075:12231   */\n      pop\n        /* \"#utility.yul\":12052:12231   */\n    tag_208:\n        /* \"#utility.yul\":12277:12278   */\n      0x01\n        /* \"#utility.yul\":12273:12274   */\n      0x02\n        /* \"#utility.yul\":12265:12271   */\n      dup9\n        /* \"#utility.yul\":12261:12275   */\n      mul\n        /* \"#utility.yul\":12257:12279   */\n      add\n        /* \"#utility.yul\":12251:12255   */\n      dup9\n        /* \"#utility.yul\":12244:12280   */\n      sstore\n        /* \"#utility.yul\":11679:12290   */\n      pop\n      pop\n      pop\n        /* \"#utility.yul\":11642:12529   */\n    tag_200:\n      pop\n        /* \"#utility.yul\":11232:12535   */\n      pop\n      pop\n      pop\n        /* \"#utility.yul\":11140:12535   */\n      pop\n      pop\n      jump\t// out\n        /* \"#utility.yul\":12541:12710   */\n    tag_74:\n        /* \"#utility.yul\":12625:12636   */\n      0x00\n        /* \"#utility.yul\":12659:12665   */\n      dup3\n        /* \"#utility.yul\":12654:12657   */\n      dup3\n        /* \"#utility.yul\":12647:12666   */\n      mstore\n        /* \"#utility.yul\":12699:12703   */\n      0x20\n        /* \"#utility.yul\":12694:12697   */\n      dup3\n        /* \"#utility.yul\":12690:12704   */\n      add\n        /* \"#utility.yul\":12675:12704   */\n      swap1\n      pop\n        /* \"#utility.yul\":12541:12710   */\n      swap3\n      swap2\n      pop\n      pop\n      jump\t// out\n        /* \"#utility.yul\":12716:13093   */\n    tag_75:\n        /* \"#utility.yul\":12804:12807   */\n      0x00\n        /* \"#utility.yul\":12832:12871   */\n      tag_212\n        /* \"#utility.yul\":12865:12870   */\n      dup3\n        /* \"#utility.yul\":12832:12871   */\n      tag_36\n      jump\t// in\n    tag_212:\n        /* \"#utility.yul\":12887:12958   */\n      tag_213\n        /* \"#utility.yul\":12951:12957   */\n      dup2\n        /* \"#utility.yul\":12946:12949   */\n      dup6\n        /* \"#utility.yul\":12887:12958   */\n      tag_74\n      jump\t// in\n    tag_213:\n        /* \"#utility.yul\":12880:12958   */\n      swap4\n      pop\n        /* \"#utility.yul\":12967:13032   */\n      tag_214\n        /* \"#utility.yul\":13025:13031   */\n      dup2\n        /* \"#utility.yul\":13020:13023   */\n      dup6\n        /* \"#utility.yul\":13013:13017   */\n      0x20\n        /* \"#utility.yul\":13006:13011   */\n      dup7\n        /* \"#utility.yul\":13002:13018   */\n      add\n        /* \"#utility.yul\":12967:13032   */\n      tag_38\n      jump\t// in\n    tag_214:\n        /* \"#utility.yul\":13057:13086   */\n      tag_215\n        /* \"#utility.yul\":13079:13085   */\n      dup2\n        /* \"#utility.yul\":13057:13086   */\n      tag_39\n      jump\t// in\n    tag_215:\n        /* \"#utility.yul\":13052:13055   */\n      dup5\n        /* \"#utility.yul\":13048:13087   */\n      add\n        /* \"#utility.yul\":13041:13087   */\n      swap2\n      pop\n        /* \"#utility.yul\":12808:13093   */\n      pop\n        /* \"#utility.yul\":12716:13093   */\n      swap3\n      swap2\n      pop\n      pop\n      jump\t// out\n        /* \"#utility.yul\":13099:13412   */\n    tag_30:\n        /* \"#utility.yul\":13212:13216   */\n      0x00\n        /* \"#utility.yul\":13250:13252   */\n      0x20\n        /* \"#utility.yul\":13239:13248   */\n      dup3\n        /* \"#utility.yul\":13235:13253   */\n      add\n        /* \"#utility.yul\":13227:13253   */\n      swap1\n      pop\n        /* \"#utility.yul\":13299:13308   */\n      dup2\n        /* \"#utility.yul\":13293:13297   */\n      dup2\n        /* \"#utility.yul\":13289:13309   */\n      sub\n        /* \"#utility.yul\":13285:13286   */\n      0x00\n        /* \"#utility.yul\":13274:13283   */\n      dup4\n        /* \"#utility.yul\":13270:13287   */\n      add\n        /* \"#utility.yul\":13263:13310   */\n      mstore\n        /* \"#utility.yul\":13327:13405   */\n      tag_217\n        /* \"#utility.yul\":13400:13404   */\n      dup2\n        /* \"#utility.yul\":13391:13397   */\n      dup5\n        /* \"#utility.yul\":13327:13405   */\n      tag_75\n      jump\t// in\n    tag_217:\n        /* \"#utility.yul\":13319:13405   */\n      swap1\n      pop\n        /* \"#utility.yul\":13099:13412   */\n      swap3\n      swap2\n      pop\n      pop\n      jump\t// out\n\n    auxdata: 0xa2646970667358221220c23bd487099481d39be0fd9264dfc1fa43eca89599ef775b0c5a52306497f1ad64736f6c63430008160033\n}\n",
				"bytecode": {
					"linkReferences": {},
					"object": "608060405234801561000f575f80fd5b506109e18061001d5f395ff3fe608060405234801561000f575f80fd5b5060043610610034575f3560e01c80631b26708c14610038578063a7c6b52e14610056575b5f80fd5b610040610072565b60405161004d9190610476565b60405180910390f35b610070600480360381019061006b91906105d3565b6101a1565b005b60605f803373ffffffffffffffffffffffffffffffffffffffff1673ffffffffffffffffffffffffffffffffffffffff1681526020019081526020015f20805480602002602001604051908101604052809291908181526020015f905b82821015610198578382905f5260205f2090600202016040518060400160405290815f820154815260200160018201805461010990610647565b80601f016020809104026020016040519081016040528092919081815260200182805461013590610647565b80156101805780601f1061015757610100808354040283529160200191610180565b820191905f5260205f20905b81548152906001019060200180831161016357829003601f168201915b505050505081525050815260200190600101906100cf565b50505050905090565b5f60015f803373ffffffffffffffffffffffffffffffffffffffff1673ffffffffffffffffffffffffffffffffffffffff1681526020019081526020015f20805490506101ee91906106a4565b90505f60405180604001604052808381526020018481525090505f803373ffffffffffffffffffffffffffffffffffffffff1673ffffffffffffffffffffffffffffffffffffffff1681526020019081526020015f2081908060018154018082558091505060019003905f5260205f2090600202015f909190919091505f820151815f015560208201518160010190816102889190610874565b505050813373ffffffffffffffffffffffffffffffffffffffff167fd9943d316e03c76a0277683e5fa4ed2b175e6568c8d3a22d9f0b32092e584a28856040516102d2919061098b565b60405180910390a3505050565b5f81519050919050565b5f82825260208201905092915050565b5f819050602082019050919050565b5f819050919050565b61031a81610308565b82525050565b5f81519050919050565b5f82825260208201905092915050565b5f5b8381101561035757808201518184015260208101905061033c565b5f8484015250505050565b5f601f19601f8301169050919050565b5f61037c82610320565b610386818561032a565b935061039681856020860161033a565b61039f81610362565b840191505092915050565b5f604083015f8301516103bf5f860182610311565b50602083015184820360208601526103d78282610372565b9150508091505092915050565b5f6103ef83836103aa565b905092915050565b5f602082019050919050565b5f61040d826102df565b61041781856102e9565b935083602082028501610429856102f9565b805f5b85811015610464578484038952815161044585826103e4565b9450610450836103f7565b925060208a0199505060018101905061042c565b50829750879550505050505092915050565b5f6020820190508181035f83015261048e8184610403565b905092915050565b5f604051905090565b5f80fd5b5f80fd5b5f80fd5b5f80fd5b7f4e487b71000000000000000000000000000000000000000000000000000000005f52604160045260245ffd5b6104e582610362565b810181811067ffffffffffffffff82111715610504576105036104af565b5b80604052505050565b5f610516610496565b905061052282826104dc565b919050565b5f67ffffffffffffffff821115610541576105406104af565b5b61054a82610362565b9050602081019050919050565b828183375f83830152505050565b5f61057761057284610527565b61050d565b905082815260208101848484011115610593576105926104ab565b5b61059e848285610557565b509392505050565b5f82601f8301126105ba576105b96104a7565b5b81356105ca848260208601610565565b91505092915050565b5f602082840312156105e8576105e761049f565b5b5f82013567ffffffffffffffff811115610605576106046104a3565b5b610611848285016105a6565b91505092915050565b7f4e487b71000000000000000000000000000000000000000000000000000000005f52602260045260245ffd5b5f600282049050600182168061065e57607f821691505b6020821081036106715761067061061a565b5b50919050565b7f4e487b71000000000000000000000000000000000000000000000000000000005f52601160045260245ffd5b5f6106ae82610308565b91506106b983610308565b92508282019050808211156106d1576106d0610677565b5b92915050565b5f819050815f5260205f209050919050565b5f6020601f8301049050919050565b5f82821b905092915050565b5f600883026107337fffffffffffffffffffffffffffffffffffffffffffffffffffffffffffffffff826106f8565b61073d86836106f8565b95508019841693508086168417925050509392505050565b5f819050919050565b5f61077861077361076e84610308565b610755565b610308565b9050919050565b5f819050919050565b6107918361075e565b6107a561079d8261077f565b848454610704565b825550505050565b5f90565b6107b96107ad565b6107c4818484610788565b505050565b5b818110156107e7576107dc5f826107b1565b6001810190506107ca565b5050565b601f82111561082c576107fd816106d7565b610806846106e9565b81016020851015610815578190505b610829610821856106e9565b8301826107c9565b50505b505050565b5f82821c905092915050565b5f61084c5f1984600802610831565b1980831691505092915050565b5f610864838361083d565b9150826002028217905092915050565b61087d82610320565b67ffffffffffffffff811115610896576108956104af565b5b6108a08254610647565b6108ab8282856107eb565b5f60209050601f8311600181146108dc575f84156108ca578287015190505b6108d48582610859565b86555061093b565b601f1984166108ea866106d7565b5f5b82811015610911578489015182556001820191506020850194506020810190506108ec565b8683101561092e578489015161092a601f89168261083d565b8355505b6001600288020188555050505b505050505050565b5f82825260208201905092915050565b5f61095d82610320565b6109678185610943565b935061097781856020860161033a565b61098081610362565b840191505092915050565b5f6020820190508181035f8301526109a38184610953565b90509291505056fea2646970667358221220c23bd487099481d39be0fd9264dfc1fa43eca89599ef775b0c5a52306497f1ad64736f6c63430008160033",
					"opcodes": "PUSH1 0x80 PUSH1 0x40 MSTORE CALLVALUE DUP1 ISZERO PUSH2 0xF JUMPI PUSH0 DUP1 REVERT JUMPDEST POP PUSH2 0x9E1 DUP1 PUSH2 0x1D PUSH0 CODECOPY PUSH0 RETURN INVALID PUSH1 0x80 PUSH1 0x40 MSTORE CALLVALUE DUP1 ISZERO PUSH2 0xF JUMPI PUSH0 DUP1 REVERT JUMPDEST POP PUSH1 0x4 CALLDATASIZE LT PUSH2 0x34 JUMPI PUSH0 CALLDATALOAD PUSH1 0xE0 SHR DUP1 PUSH4 0x1B26708C EQ PUSH2 0x38 JUMPI DUP1 PUSH4 0xA7C6B52E EQ PUSH2 0x56 JUMPI JUMPDEST PUSH0 DUP1 REVERT JUMPDEST PUSH2 0x40 PUSH2 0x72 JUMP JUMPDEST PUSH1 0x40 MLOAD PUSH2 0x4D SWAP2 SWAP1 PUSH2 0x476 JUMP JUMPDEST PUSH1 0x40 MLOAD DUP1 SWAP2 SUB SWAP1 RETURN JUMPDEST PUSH2 0x70 PUSH1 0x4 DUP1 CALLDATASIZE SUB DUP2 ADD SWAP1 PUSH2 0x6B SWAP2 SWAP1 PUSH2 0x5D3 JUMP JUMPDEST PUSH2 0x1A1 JUMP JUMPDEST STOP JUMPDEST PUSH1 0x60 PUSH0 DUP1 CALLER PUSH20 0xFFFFFFFFFFFFFFFFFFFFFFFFFFFFFFFFFFFFFFFF AND PUSH20 0xFFFFFFFFFFFFFFFFFFFFFFFFFFFFFFFFFFFFFFFF AND DUP2 MSTORE PUSH1 0x20 ADD SWAP1 DUP2 MSTORE PUSH1 0x20 ADD PUSH0 KECCAK256 DUP1 SLOAD DUP1 PUSH1 0x20 MUL PUSH1 0x20 ADD PUSH1 0x40 MLOAD SWAP1 DUP2 ADD PUSH1 0x40 MSTORE DUP1 SWAP3 SWAP2 SWAP1 DUP2 DUP2 MSTORE PUSH1 0x20 ADD PUSH0 SWAP1 JUMPDEST DUP3 DUP3 LT ISZERO PUSH2 0x198 JUMPI DUP4 DUP3 SWAP1 PUSH0 MSTORE PUSH1 0x20 PUSH0 KECCAK256 SWAP1 PUSH1 0x2 MUL ADD PUSH1 0x40 MLOAD DUP1 PUSH1 0x40 ADD PUSH1 0x40 MSTORE SWAP1 DUP2 PUSH0 DUP3 ADD SLOAD DUP2 MSTORE PUSH1 0x20 ADD PUSH1 0x1 DUP3 ADD DUP1 SLOAD PUSH2 0x109 SWAP1 PUSH2 0x647 JUMP JUMPDEST DUP1 PUSH1 0x1F ADD PUSH1 0x20 DUP1 SWAP2 DIV MUL PUSH1 0x20 ADD PUSH1 0x40 MLOAD SWAP1 DUP2 ADD PUSH1 0x40 MSTORE DUP1 SWAP3 SWAP2 SWAP1 DUP2 DUP2 MSTORE PUSH1 0x20 ADD DUP3 DUP1 SLOAD PUSH2 0x135 SWAP1 PUSH2 0x647 JUMP JUMPDEST DUP1 ISZERO PUSH2 0x180 JUMPI DUP1 PUSH1 0x1F LT PUSH2 0x157 JUMPI PUSH2 0x100 DUP1 DUP4 SLOAD DIV MUL DUP4 MSTORE SWAP2 PUSH1 0x20 ADD SWAP2 PUSH2 0x180 JUMP JUMPDEST DUP3 ADD SWAP2 SWAP1 PUSH0 MSTORE PUSH1 0x20 PUSH0 KECCAK256 SWAP1 JUMPDEST DUP2 SLOAD DUP2 MSTORE SWAP1 PUSH1 0x1 ADD SWAP1 PUSH1 0x20 ADD DUP1 DUP4 GT PUSH2 0x163 JUMPI DUP3 SWAP1 SUB PUSH1 0x1F AND DUP3 ADD SWAP2 JUMPDEST POP POP POP POP POP DUP2 MSTORE POP POP DUP2 MSTORE PUSH1 0x20 ADD SWAP1 PUSH1 0x1 ADD SWAP1 PUSH2 0xCF JUMP JUMPDEST POP POP POP POP SWAP1 POP SWAP1 JUMP JUMPDEST PUSH0 PUSH1 0x1 PUSH0 DUP1 CALLER PUSH20 0xFFFFFFFFFFFFFFFFFFFFFFFFFFFFFFFFFFFFFFFF AND PUSH20 0xFFFFFFFFFFFFFFFFFFFFFFFFFFFFFFFFFFFFFFFF AND DUP2 MSTORE PUSH1 0x20 ADD SWAP1 DUP2 MSTORE PUSH1 0x20 ADD PUSH0 KECCAK256 DUP1 SLOAD SWAP1 POP PUSH2 0x1EE SWAP2 SWAP1 PUSH2 0x6A4 JUMP JUMPDEST SWAP1 POP PUSH0 PUSH1 0x40 MLOAD DUP1 PUSH1 0x40 ADD PUSH1 0x40 MSTORE DUP1 DUP4 DUP2 MSTORE PUSH1 0x20 ADD DUP5 DUP2 MSTORE POP SWAP1 POP PUSH0 DUP1 CALLER PUSH20 0xFFFFFFFFFFFFFFFFFFFFFFFFFFFFFFFFFFFFFFFF AND PUSH20 0xFFFFFFFFFFFFFFFFFFFFFFFFFFFFFFFFFFFFFFFF AND DUP2 MSTORE PUSH1 0x20 ADD SWAP1 DUP2 MSTORE PUSH1 0x20 ADD PUSH0 KECCAK256 DUP2 SWAP1 DUP1 PUSH1 0x1 DUP2 SLOAD ADD DUP1 DUP3 SSTORE DUP1 SWAP2 POP POP PUSH1 0x1 SWAP1 SUB SWAP1 PUSH0 MSTORE PUSH1 0x20 PUSH0 KECCAK256 SWAP1 PUSH1 0x2 MUL ADD PUSH0 SWAP1 SWAP2 SWAP1 SWAP2 SWAP1 SWAP2 POP PUSH0 DUP3 ADD MLOAD DUP2 PUSH0 ADD SSTORE PUSH1 0x20 DUP3 ADD MLOAD DUP2 PUSH1 0x1 ADD SWAP1 DUP2 PUSH2 0x288 SWAP2 SWAP1 PUSH2 0x874 JUMP JUMPDEST POP POP POP DUP2 CALLER PUSH20 0xFFFFFFFFFFFFFFFFFFFFFFFFFFFFFFFFFFFFFFFF AND PUSH32 0xD9943D316E03C76A0277683E5FA4ED2B175E6568C8D3A22D9F0B32092E584A28 DUP6 PUSH1 0x40 MLOAD PUSH2 0x2D2 SWAP2 SWAP1 PUSH2 0x98B JUMP JUMPDEST PUSH1 0x40 MLOAD DUP1 SWAP2 SUB SWAP1 LOG3 POP POP POP JUMP JUMPDEST PUSH0 DUP2 MLOAD SWAP1 POP SWAP2 SWAP1 POP JUMP JUMPDEST PUSH0 DUP3 DUP3 MSTORE PUSH1 0x20 DUP3 ADD SWAP1 POP SWAP3 SWAP2 POP POP JUMP JUMPDEST PUSH0 DUP2 SWAP1 POP PUSH1 0x20 DUP3 ADD SWAP1 POP SWAP2 SWAP1 POP JUMP JUMPDEST PUSH0 DUP2 SWAP1 POP SWAP2 SWAP1 POP JUMP JUMPDEST PUSH2 0x31A DUP2 PUSH2 0x308 JUMP JUMPDEST DUP3 MSTORE POP POP JUMP JUMPDEST PUSH0 DUP2 MLOAD SWAP1 POP SWAP2 SWAP1 POP JUMP JUMPDEST PUSH0 DUP3 DUP3 MSTORE PUSH1 0x20 DUP3 ADD SWAP1 POP SWAP3 SWAP2 POP POP JUMP JUMPDEST PUSH0 JUMPDEST DUP4 DUP2 LT ISZERO PUSH2 0x357 JUMPI DUP1 DUP3 ADD MLOAD DUP2 DUP5 ADD MSTORE PUSH1 0x20 DUP2 ADD SWAP1 POP PUSH2 0x33C JUMP JUMPDEST PUSH0 DUP5 DUP5 ADD MSTORE POP POP POP POP JUMP JUMPDEST PUSH0 PUSH1 0x1F NOT PUSH1 0x1F DUP4 ADD AND SWAP1 POP SWAP2 SWAP1 POP JUMP JUMPDEST PUSH0 PUSH2 0x37C DUP3 PUSH2 0x320 JUMP JUMPDEST PUSH2 0x386 DUP2 DUP6 PUSH2 0x32A JUMP JUMPDEST SWAP4 POP PUSH2 0x396 DUP2 DUP6 PUSH1 0x20 DUP7 ADD PUSH2 0x33A JUMP JUMPDEST PUSH2 0x39F DUP2 PUSH2 0x362 JUMP JUMPDEST DUP5 ADD SWAP2 POP POP SWAP3 SWAP2 POP POP JUMP JUMPDEST PUSH0 PUSH1 0x40 DUP4 ADD PUSH0 DUP4 ADD MLOAD PUSH2 0x3BF PUSH0 DUP7 ADD DUP3 PUSH2 0x311 JUMP JUMPDEST POP PUSH1 0x20 DUP4 ADD MLOAD DUP5 DUP3 SUB PUSH1 0x20 DUP7 ADD MSTORE PUSH2 0x3D7 DUP3 DUP3 PUSH2 0x372 JUMP JUMPDEST SWAP2 POP POP DUP1 SWAP2 POP POP SWAP3 SWAP2 POP POP JUMP JUMPDEST PUSH0 PUSH2 0x3EF DUP4 DUP4 PUSH2 0x3AA JUMP JUMPDEST SWAP1 POP SWAP3 SWAP2 POP POP JUMP JUMPDEST PUSH0 PUSH1 0x20 DUP3 ADD SWAP1 POP SWAP2 SWAP1 POP JUMP JUMPDEST PUSH0 PUSH2 0x40D DUP3 PUSH2 0x2DF JUMP JUMPDEST PUSH2 0x417 DUP2 DUP6 PUSH2 0x2E9 JUMP JUMPDEST SWAP4 POP DUP4 PUSH1 0x20 DUP3 MUL DUP6 ADD PUSH2 0x429 DUP6 PUSH2 0x2F9 JUMP JUMPDEST DUP1 PUSH0 JUMPDEST DUP6 DUP2 LT ISZERO PUSH2 0x464 JUMPI DUP5 DUP5 SUB DUP10 MSTORE DUP2 MLOAD PUSH2 0x445 DUP6 DUP3 PUSH2 0x3E4 JUMP JUMPDEST SWAP5 POP PUSH2 0x450 DUP4 PUSH2 0x3F7 JUMP JUMPDEST SWAP3 POP PUSH1 0x20 DUP11 ADD SWAP10 POP POP PUSH1 0x1 DUP2 ADD SWAP1 POP PUSH2 0x42C JUMP JUMPDEST POP DUP3 SWAP8 POP DUP8 SWAP6 POP POP POP POP POP POP SWAP3 SWAP2 POP POP JUMP JUMPDEST PUSH0 PUSH1 0x20 DUP3 ADD SWAP1 POP DUP2 DUP2 SUB PUSH0 DUP4 ADD MSTORE PUSH2 0x48E DUP2 DUP5 PUSH2 0x403 JUMP JUMPDEST SWAP1 POP SWAP3 SWAP2 POP POP JUMP JUMPDEST PUSH0 PUSH1 0x40 MLOAD SWAP1 POP SWAP1 JUMP JUMPDEST PUSH0 DUP1 REVERT JUMPDEST PUSH0 DUP1 REVERT JUMPDEST PUSH0 DUP1 REVERT JUMPDEST PUSH0 DUP1 REVERT JUMPDEST PUSH32 0x4E487B7100000000000000000000000000000000000000000000000000000000 PUSH0 MSTORE PUSH1 0x41 PUSH1 0x4 MSTORE PUSH1 0x24 PUSH0 REVERT JUMPDEST PUSH2 0x4E5 DUP3 PUSH2 0x362 JUMP JUMPDEST DUP2 ADD DUP2 DUP2 LT PUSH8 0xFFFFFFFFFFFFFFFF DUP3 GT OR ISZERO PUSH2 0x504 JUMPI PUSH2 0x503 PUSH2 0x4AF JUMP JUMPDEST JUMPDEST DUP1 PUSH1 0x40 MSTORE POP POP POP JUMP JUMPDEST PUSH0 PUSH2 0x516 PUSH2 0x496 JUMP JUMPDEST SWAP1 POP PUSH2 0x522 DUP3 DUP3 PUSH2 0x4DC JUMP JUMPDEST SWAP2 SWAP1 POP JUMP JUMPDEST PUSH0 PUSH8 0xFFFFFFFFFFFFFFFF DUP3 GT ISZERO PUSH2 0x541 JUMPI PUSH2 0x540 PUSH2 0x4AF JUMP JUMPDEST JUMPDEST PUSH2 0x54A DUP3 PUSH2 0x362 JUMP JUMPDEST SWAP1 POP PUSH1 0x20 DUP2 ADD SWAP1 POP SWAP2 SWAP1 POP JUMP JUMPDEST DUP3 DUP2 DUP4 CALLDATACOPY PUSH0 DUP4 DUP4 ADD MSTORE POP POP POP JUMP JUMPDEST PUSH0 PUSH2 0x577 PUSH2 0x572 DUP5 PUSH2 0x527 JUMP JUMPDEST PUSH2 0x50D JUMP JUMPDEST SWAP1 POP DUP3 DUP2 MSTORE PUSH1 0x20 DUP2 ADD DUP5 DUP5 DUP5 ADD GT ISZERO PUSH2 0x593 JUMPI PUSH2 0x592 PUSH2 0x4AB JUMP JUMPDEST JUMPDEST PUSH2 0x59E DUP5 DUP3 DUP6 PUSH2 0x557 JUMP JUMPDEST POP SWAP4 SWAP3 POP POP POP JUMP JUMPDEST PUSH0 DUP3 PUSH1 0x1F DUP4 ADD SLT PUSH2 0x5BA JUMPI PUSH2 0x5B9 PUSH2 0x4A7 JUMP JUMPDEST JUMPDEST DUP2 CALLDATALOAD PUSH2 0x5CA DUP5 DUP3 PUSH1 0x20 DUP7 ADD PUSH2 0x565 JUMP JUMPDEST SWAP2 POP POP SWAP3 SWAP2 POP POP JUMP JUMPDEST PUSH0 PUSH1 0x20 DUP3 DUP5 SUB SLT ISZERO PUSH2 0x5E8 JUMPI PUSH2 0x5E7 PUSH2 0x49F JUMP JUMPDEST JUMPDEST PUSH0 DUP3 ADD CALLDATALOAD PUSH8 0xFFFFFFFFFFFFFFFF DUP2 GT ISZERO PUSH2 0x605 JUMPI PUSH2 0x604 PUSH2 0x4A3 JUMP JUMPDEST JUMPDEST PUSH2 0x611 DUP5 DUP3 DUP6 ADD PUSH2 0x5A6 JUMP JUMPDEST SWAP2 POP POP SWAP3 SWAP2 POP POP JUMP JUMPDEST PUSH32 0x4E487B7100000000000000000000000000000000000000000000000000000000 PUSH0 MSTORE PUSH1 0x22 PUSH1 0x4 MSTORE PUSH1 0x24 PUSH0 REVERT JUMPDEST PUSH0 PUSH1 0x2 DUP3 DIV SWAP1 POP PUSH1 0x1 DUP3 AND DUP1 PUSH2 0x65E JUMPI PUSH1 0x7F DUP3 AND SWAP2 POP JUMPDEST PUSH1 0x20 DUP3 LT DUP2 SUB PUSH2 0x671 JUMPI PUSH2 0x670 PUSH2 0x61A JUMP JUMPDEST JUMPDEST POP SWAP2 SWAP1 POP JUMP JUMPDEST PUSH32 0x4E487B7100000000000000000000000000000000000000000000000000000000 PUSH0 MSTORE PUSH1 0x11 PUSH1 0x4 MSTORE PUSH1 0x24 PUSH0 REVERT JUMPDEST PUSH0 PUSH2 0x6AE DUP3 PUSH2 0x308 JUMP JUMPDEST SWAP2 POP PUSH2 0x6B9 DUP4 PUSH2 0x308 JUMP JUMPDEST SWAP3 POP DUP3 DUP3 ADD SWAP1 POP DUP1 DUP3 GT ISZERO PUSH2 0x6D1 JUMPI PUSH2 0x6D0 PUSH2 0x677 JUMP JUMPDEST JUMPDEST SWAP3 SWAP2 POP POP JUMP JUMPDEST PUSH0 DUP2 SWAP1 POP DUP2 PUSH0 MSTORE PUSH1 0x20 PUSH0 KECCAK256 SWAP1 POP SWAP2 SWAP1 POP JUMP JUMPDEST PUSH0 PUSH1 0x20 PUSH1 0x1F DUP4 ADD DIV SWAP1 POP SWAP2 SWAP1 POP JUMP JUMPDEST PUSH0 DUP3 DUP3 SHL SWAP1 POP SWAP3 SWAP2 POP POP JUMP JUMPDEST PUSH0 PUSH1 0x8 DUP4 MUL PUSH2 0x733 PUSH32 0xFFFFFFFFFFFFFFFFFFFFFFFFFFFFFFFFFFFFFFFFFFFFFFFFFFFFFFFFFFFFFFFF DUP3 PUSH2 0x6F8 JUMP JUMPDEST PUSH2 0x73D DUP7 DUP4 PUSH2 0x6F8 JUMP JUMPDEST SWAP6 POP DUP1 NOT DUP5 AND SWAP4 POP DUP1 DUP7 AND DUP5 OR SWAP3 POP POP POP SWAP4 SWAP3 POP POP POP JUMP JUMPDEST PUSH0 DUP2 SWAP1 POP SWAP2 SWAP1 POP JUMP JUMPDEST PUSH0 PUSH2 0x778 PUSH2 0x773 PUSH2 0x76E DUP5 PUSH2 0x308 JUMP JUMPDEST PUSH2 0x755 JUMP JUMPDEST PUSH2 0x308 JUMP JUMPDEST SWAP1 POP SWAP2 SWAP1 POP JUMP JUMPDEST PUSH0 DUP2 SWAP1 POP SWAP2 SWAP1 POP JUMP JUMPDEST PUSH2 0x791 DUP4 PUSH2 0x75E JUMP JUMPDEST PUSH2 0x7A5 PUSH2 0x79D DUP3 PUSH2 0x77F JUMP JUMPDEST DUP5 DUP5 SLOAD PUSH2 0x704 JUMP JUMPDEST DUP3 SSTORE POP POP POP POP JUMP JUMPDEST PUSH0 SWAP1 JUMP JUMPDEST PUSH2 0x7B9 PUSH2 0x7AD JUMP JUMPDEST PUSH2 0x7C4 DUP2 DUP5 DUP5 PUSH2 0x788 JUMP JUMPDEST POP POP POP JUMP JUMPDEST JUMPDEST DUP2 DUP2 LT ISZERO PUSH2 0x7E7 JUMPI PUSH2 0x7DC PUSH0 DUP3 PUSH2 0x7B1 JUMP JUMPDEST PUSH1 0x1 DUP2 ADD SWAP1 POP PUSH2 0x7CA JUMP JUMPDEST POP POP JUMP JUMPDEST PUSH1 0x1F DUP3 GT ISZERO PUSH2 0x82C JUMPI PUSH2 0x7FD DUP2 PUSH2 0x6D7 JUMP JUMPDEST PUSH2 0x806 DUP5 PUSH2 0x6E9 JUMP JUMPDEST DUP2 ADD PUSH1 0x20 DUP6 LT ISZERO PUSH2 0x815 JUMPI DUP2 SWAP1 POP JUMPDEST PUSH2 0x829 PUSH2 0x821 DUP6 PUSH2 0x6E9 JUMP JUMPDEST DUP4 ADD DUP3 PUSH2 0x7C9 JUMP JUMPDEST POP POP JUMPDEST POP POP POP JUMP JUMPDEST PUSH0 DUP3 DUP3 SHR SWAP1 POP SWAP3 SWAP2 POP POP JUMP JUMPDEST PUSH0 PUSH2 0x84C PUSH0 NOT DUP5 PUSH1 0x8 MUL PUSH2 0x831 JUMP JUMPDEST NOT DUP1 DUP4 AND SWAP2 POP POP SWAP3 SWAP2 POP POP JUMP JUMPDEST PUSH0 PUSH2 0x864 DUP4 DUP4 PUSH2 0x83D JUMP JUMPDEST SWAP2 POP DUP3 PUSH1 0x2 MUL DUP3 OR SWAP1 POP SWAP3 SWAP2 POP POP JUMP JUMPDEST PUSH2 0x87D DUP3 PUSH2 0x320 JUMP JUMPDEST PUSH8 0xFFFFFFFFFFFFFFFF DUP2 GT ISZERO PUSH2 0x896 JUMPI PUSH2 0x895 PUSH2 0x4AF JUMP JUMPDEST JUMPDEST PUSH2 0x8A0 DUP3 SLOAD PUSH2 0x647 JUMP JUMPDEST PUSH2 0x8AB DUP3 DUP3 DUP6 PUSH2 0x7EB JUMP JUMPDEST PUSH0 PUSH1 0x20 SWAP1 POP PUSH1 0x1F DUP4 GT PUSH1 0x1 DUP2 EQ PUSH2 0x8DC JUMPI PUSH0 DUP5 ISZERO PUSH2 0x8CA JUMPI DUP3 DUP8 ADD MLOAD SWAP1 POP JUMPDEST PUSH2 0x8D4 DUP6 DUP3 PUSH2 0x859 JUMP JUMPDEST DUP7 SSTORE POP PUSH2 0x93B JUMP JUMPDEST PUSH1 0x1F NOT DUP5 AND PUSH2 0x8EA DUP7 PUSH2 0x6D7 JUMP JUMPDEST PUSH0 JUMPDEST DUP3 DUP2 LT ISZERO PUSH2 0x911 JUMPI DUP5 DUP10 ADD MLOAD DUP3 SSTORE PUSH1 0x1 DUP3 ADD SWAP2 POP PUSH1 0x20 DUP6 ADD SWAP5 POP PUSH1 0x20 DUP2 ADD SWAP1 POP PUSH2 0x8EC JUMP JUMPDEST DUP7 DUP4 LT ISZERO PUSH2 0x92E JUMPI DUP5 DUP10 ADD MLOAD PUSH2 0x92A PUSH1 0x1F DUP10 AND DUP3 PUSH2 0x83D JUMP JUMPDEST DUP4 SSTORE POP JUMPDEST PUSH1 0x1 PUSH1 0x2 DUP9 MUL ADD DUP9 SSTORE POP POP POP JUMPDEST POP POP POP POP POP POP JUMP JUMPDEST PUSH0 DUP3 DUP3 MSTORE PUSH1 0x20 DUP3 ADD SWAP1 POP SWAP3 SWAP2 POP POP JUMP JUMPDEST PUSH0 PUSH2 0x95D DUP3 PUSH2 0x320 JUMP JUMPDEST PUSH2 0x967 DUP2 DUP6 PUSH2 0x943 JUMP JUMPDEST SWAP4 POP PUSH2 0x977 DUP2 DUP6 PUSH1 0x20 DUP7 ADD PUSH2 0x33A JUMP JUMPDEST PUSH2 0x980 DUP2 PUSH2 0x362 JUMP JUMPDEST DUP5 ADD SWAP2 POP POP SWAP3 SWAP2 POP POP JUMP JUMPDEST PUSH0 PUSH1 0x20 DUP3 ADD SWAP1 POP DUP2 DUP2 SUB PUSH0 DUP4 ADD MSTORE PUSH2 0x9A3 DUP2 DUP5 PUSH2 0x953 JUMP JUMPDEST SWAP1 POP SWAP3 SWAP2 POP POP JUMP INVALID LOG2 PUSH5 0x6970667358 0x22 SLT KECCAK256 0xC2 EXTCODESIZE 0xD4 DUP8 MULMOD SWAP5 DUP2 0xD3 SWAP12 0xE0 REVERT SWAP3 PUSH5 0xDFC1FA43EC 0xA8 SWAP6 SWAP10 0xEF PUSH24 0x5B0C5A52306497F1AD64736F6C6343000816003300000000 "
				},
				"gasEstimates": {
					"creation": {
						"codeDepositCost": "505800",
						"executionCost": "541",
						"totalCost": "506341"
					},
					"external": {
						"addAsset(string)": "infinite",
						"getUserAssets()": "infinite"
					}
				},
				"methodIdentifiers": {
					"addAsset(string)": "a7c6b52e",
					"getUserAssets()": "1b26708c"
				}
			},
			"storageLayout": {
				"storage": [
					{
						"astId": 12,
						"contract": "contracts/AssetManagement.sol:AssetManagement",
						"label": "userAssets",
						"offset": 0,
						"slot": "0",
						"type": "t_mapping(t_address,t_array(t_struct(Asset)6_storage)dyn_storage)"
					}
				],
				"types": {
					"t_address": {
						"encoding": "inplace",
						"label": "address",
						"numberOfBytes": "20"
					},
					"t_array(t_struct(Asset)6_storage)dyn_storage": {
						"base": "t_struct(Asset)6_storage",
						"encoding": "dynamic_array",
						"label": "struct AssetManagement.Asset[]",
						"numberOfBytes": "32"
					},
					"t_mapping(t_address,t_array(t_struct(Asset)6_storage)dyn_storage)": {
						"encoding": "mapping",
						"key": "t_address",
						"label": "mapping(address => struct AssetManagement.Asset[])",
						"numberOfBytes": "32",
						"value": "t_array(t_struct(Asset)6_storage)dyn_storage"
					},
					"t_string_storage": {
						"encoding": "bytes",
						"label": "string",
						"numberOfBytes": "32"
					},
					"t_struct(Asset)6_storage": {
						"encoding": "inplace",
						"label": "struct AssetManagement.Asset",
						"members": [
							{
								"astId": 3,
								"contract": "contracts/AssetManagement.sol:AssetManagement",
								"label": "id",
								"offset": 0,
								"slot": "0",
								"type": "t_uint256"
							},
							{
								"astId": 5,
								"contract": "contracts/AssetManagement.sol:AssetManagement",
								"label": "name",
								"offset": 0,
								"slot": "1",
								"type": "t_string_storage"
							}
						],
						"numberOfBytes": "64"
					},
					"t_uint256": {
						"encoding": "inplace",
						"label": "uint256",
						"numberOfBytes": "32"
					}
				}
			},
			"userdoc": {
				"kind": "user",
				"methods": {},
				"version": 1
			}
		}
	}
}